:020000040800F2
:1000000000200020C16400080164000803640008A7
:1000100000000000000000000000000000000000E0
:10002000000000000000000000000000056400085F
:1000300000000000000000000764000809640008D8
:1000400011650008116500081165000811650008B8
:1000500011650008116500081165000811640008A9
:100060001165000811650008116500081165000898
:100070001165000811650008000000001165000806
:1000800000000000116500080000000000000000F2
:1000900011650008000000001165000811650008E6
:1000A0001165000811650008116500081165000858
:1000B0001165000811650008116500081165000848
:1000C00010B5064C2378002B07D1054B002B02D02E
:1000D000044800E000BF0123237010BDE4010020AC
:1000E0000000000000870008044B10B5002B03D06F
:1000F0000349044800E000BF10BDC04600000000F6
:10010000E801002000870008002243088B4274D3D6
:1001100003098B425FD3030A8B4244D3030B8B4208
:1001200028D3030C8B420DD3FF22090212BA030C11
:100130008B4202D31212090265D0030B8B4219D3F2
:1001400000E0090AC30B8B4201D3CB03C01A524112
:10015000830B8B4201D38B03C01A5241430B8B425A
:1001600001D34B03C01A5241030B8B4201D30B0343
:10017000C01A5241C30A8B4201D3CB02C01A52416A
:10018000830A8B4201D38B02C01A5241430A8B422D
:1001900001D34B02C01A5241030A8B4201D30B0216
:1001A000C01A5241CDD2C3098B4201D3CB01C01A30
:1001B000524183098B4201D38B01C01A524143093A
:1001C0008B4201D34B01C01A524103098B4201D328
:1001D0000B01C01A5241C3088B4201D3CB00C01A95
:1001E000524183088B4201D38B00C01A524143080D
:1001F0008B4201D34B00C01A5241411A00D2014632
:10020000524110467047FFE701B5002000F006F8A4
:1002100002BDC0460029F7D076E770477047C04658
:10022000002B11D1002A0FD1002900D1002802D0C3
:100230000021C943081C07B4024802A140180290DB
:1002400003BDC046D9FFFFFF03B4684601B502985D
:1002500000F030F8019B9E4602B00CBC7047C046CF
:10026000F0B5CE46474615042D0C2E0080B5070488
:10027000140C3F0C9946030C7E435D436743634374
:100280007F19340CE4199C46A54203D980235B02F4
:100290009846C4444B4643435143250C36046544B9
:1002A000360C2404A4195B19591820000CBC904684
:1002B0009946F0BDF0B54F464646D646C0B5040057
:1002C00082B00D00914698468B422FD82CD04146E3
:1002D000484601F0E1FA29000600200001F0DCFAAE
:1002E000331A9C46203B9A4600D576E04B46524650
:1002F00093401F004B46624693401E00AF4228D8F1
:1003000025D05346A41BBD41002B00DA7BE0002220
:10031000002300920193012352469340019301234D
:1003200062469340009318E08242D0D90022002315
:10033000009201930A9B002B01D01C605D60009825
:10034000019902B01CBC90469946A246F0BDA3425A
:10035000D7D900220023009201936346002BE9D0F5
:10036000FB079846414672080A437B0866460EE042
:10037000AB4201D1A2420CD8A41A9D4101202419FC
:100380006D410021013E24184D41002E06D0AB42A4
:10039000EED9013E24196D41002EF8D10098019943
:1003A000534600196941002B23DB2B005246D340F2
:1003B0002A006446E2401C0053461500002B2DDB4A
:1003C00026005746BE40330026006746BE40320036
:1003D000801A994100900191ACE7624620239B1A54
:1003E0004A46DA406146130042468A4017001F43DE
:1003F00080E7624620239B1A2A0066469A40230023
:10040000F3401343D4E76246202300219B1A0022C5
:10041000009101920122DA40019280E72023624696
:1004200026009B1ADE402F00B0466646B74046467F
:100430003B003343C8E7C04670B500283DD0C31722
:10044000C5185D40C40F280001F008FA9E22121A58
:10045000962A07DCD2B2082833DD083885406802C6
:10046000400A23E0992A0BDD052329001B1AD940F5
:1004700003001B339D402B005D1EAB4119430D0053
:10048000052801DD431F9D402B000F490B406E07DF
:1004900009D00F263540042D05D004335D0102D567
:1004A0009F220B40121A9B01580AD2B24002D20579
:1004B000400AE4071043204370BD002400220020BE
:1004C000F4E76802400AF1E7FFFFFFFBF0B557468B
:1004D000DE464E464546E0B5834607000E0348001B
:1004E00085B092461C00360B400DCD0F002800D180
:1004F0009DE0954B984239D08023F6001B041E43A3
:10050000924A7B0F33439946944603006344009319
:1005100000230026FF00029323031B0B9846630071
:10052000E40F52465B0D019400D1B3E086498B4243
:1005300000D19EE04246D100802212040A43514677
:10054000490F11438B46814952468C4600996344BA
:10055000CB1A0021D20000932B0063409A460F2E45
:1005600000D905E17A4BB6009B599F465B46334361
:10057000994600D0B8E00223082600270090029395
:10058000CAE7CB463A0002990195019B9A46022997
:1005900027D0032900D180E2012944D06D49009B76
:1005A0008C4663441C00002C38DD530700D013E256
:1005B000D2085B46DB0109D55946674B19408B468B
:1005C0008021C9008C46009B63441C00634B9C4205
:1005D00007DC5B4664055F075B0217431B0B620D7C
:1005E00002E000230027584A00211B031C0B0B0DBF
:1005F0001B05234314055A4A380013401C43534635
:100600006400DB0764081C43210005B03CBC904635
:100610009946A246AB46F0BD0122524201231B1B64
:10062000382B00DCADE1002200230027DCE75B462D
:10063000334399465ED0002E00D18AE1300001F0AC
:100640000DF903000B3B1C2B00DD7BE11D22D31AAF
:100650005A460100DA4008398E4013005F463343A2
:1006600099468F403F4B00261B1A009300230293AC
:1006700052E7414653460B433B499B468C46009B01
:10068000634400935B46002B3BD1022300221E43B0
:10069000022161E7434613439B4637D04346002B74
:1006A00000D162E1404601F0D9F803000B3B1C2B5E
:1006B00000DD53E102004146083A914088461D2181
:1006C000CB1A5146D9400B0041460B439B4653463B
:1006D00093401A00009B25499C46604403008C46C9
:1006E00063440093002137E70323B14600900C26B2
:1006F000029311E70023009301330426002702939D
:100700000AE70323C3461E43032125E701331E43A3
:100710000022012120E700239A46802300271B03A3
:10072000094A61E7802349461B03194200D1E2E0F0
:100730005946194200D0DEE00B431B0317001B0B88
:10074000A246014A50E7C046FF07000001FCFFFF38
:1007500094870008FF030000FFFFFFFEFE07000074
:10076000FFFF0F800DFCFFFF01F8FFFFF303000008
:10077000D94500D9CBE000D1C6E03C00484600276F
:10078000009B013B00935B46160E1B021E431302A7
:10079000984633041B0C9946310C0191FFF73AFD42
:1007A0004A4642430B04210C050019438A4207D9EB
:1007B0008919013D8E4203D88A4201D9851E8919C3
:1007C000881A0199FFF726FD09048C464A46210440
:1007D00064464243090C030021438A4204D9891923
:1007E000013B8E4200D8F1E02D041D43AB46434649
:1007F000891A4246280C12041D0C5B46140C220078
:100800001B041B0C5A4303946B43444302956843F7
:100810001B19150CEB189C4203D980246402A446D2
:1008200060441C0C15041B042D0C20185D1981421A
:1008300077D373D00C1AA24A7D1BAF42BF419446B6
:10084000009B7F426344E01B1C00864200D1DBE03A
:100850000199FFF7DFFC4A4642430B04290C0700CD
:1008600019438A4207D98919013F8E4203D88A4227
:1008700001D9871E8919881A0199FFF7CBFC090451
:100880004A46894629044D464243090C0300294340
:100890008A4207D98919013B8E4203D88A4201D97D
:1008A000831E89193F04891A3A00039F1A433800AE
:1008B00013041B0C584381460298150C6F434343A5
:1008C00045434846000C8446DB1963449F4203D9E4
:1008D000802040028446654448461F0C00041B04E7
:1008E000000C7D191818A94200D284E000D17FE0E5
:1008F00001231A4357E680234A461B0313431B0375
:100900001B0BAA466F4A6FE6BA4200D935E74B4641
:10091000DC0758087B081C43FF0734E70024AF427C
:1009200089D247444745A4415B466442A4196418F0
:10093000013BA6421ED2A0426DD800D1B6E0241AD7
:100940009B4678E703005A46283B9A400027914689
:1009500088E6584600F082FF203072E603005246D7
:10096000283B9A4093460022B4E6504600F076FFBA
:1009700020309AE6A642E2D1B845DCD9341A9B462B
:1009800059E71F2B65DC504C0099A4465C46614436
:1009900008008C4011008240D940501E82410C4317
:1009A00014435A46DA401300620709D00F2222404E
:1009B000042A05D02200141D9442894149425B1843
:1009C0001A0262D50122002300270DE68A4200D8D0
:1009D0000AE7831E891907E70F231340042B00D170
:1009E000E6E5171D9742924153429B44FA08E0E521
:1009F000002800D1D7E57118531EB14227D3A94270
:100A000015D358D01A0073E7002B00DC04E601234D
:100A100000229B44CDE502234744474589415B4280
:100A20009C46494289190C19E344241A03E74346BA
:100A30005F0047459B41B8465B429E19023A8919BF
:100A4000A94200D054E7404500D051E7ABE51A0079
:100A5000F6E71F215F4649420C1BE740202B07D0D9
:100A60001A49009B8C46634418005B4683401A4336
:100A7000501E82413A4307270023174009D00F2117
:100A8000002311401400042995D122005F075B0266
:100A90001B0BD20817430022A6E5802359461B03EF
:100AA0000B431B0317001B0B064A9DE5BD42B2D842
:100AB0009B460024BFE68045B9D31A00C3E7C04671
:100AC000FF030000FF0700001E0400003E040000BA
:100AD000F0B55746DE464E464546E0B5834606002D
:100AE0000F03480087B092461D003F0B400DCC0F0E
:100AF000002800D16FE0DE4B984238D08023FF0001
:100B00001B041F43730F3B430193DA4B00279946A5
:100B100000239B46F60081442B0369001B0B5246C1
:100B20009846490DED0F002900D185E0D04B994240
:100B300000D173E04346DA0080231B04134352467E
:100B4000CC48520F84461343524600206144D200E1
:100B500089442100694000918C46012149448A461C
:100B60000F2F00D990E0C449BF00CF59BF465B4664
:100B70003B43019300D06AE1022308270026814607
:100B80009B46C9E732005846019B61460091022806
:100B900000D175E0032800D1FEE1012800D02CE14E
:100BA00000230027002600253F032A0D3F0BB348F2
:100BB00012053A4302401B051343009A5B00D1071C
:100BC0005B080B433000190007B03CBC90469946C7
:100BD000A246AB46F0BD5B463B43019300D12FE1FB
:100BE000002F00D1A5E1380000F038FE03000B3BD8
:100BF0001C2B00DD96E11D22D31A5A460100DA4073
:100C00005E4608398F4013008E403B4301939C4B56
:100C100000271B1A994600239B467DE74146534611
:100C20000B4393498C46E144002B00D01AE1022289
:100C30000220174300228CE7134300D10DE1434605
:100C4000002B00D181E1404600F008FE02000B3A83
:100C50001C2A00DD72E10100434608398B409846AA
:100C60001D239A1A5346D3401A0043461343524653
:100C70008A404946081A824989468144002068E72B
:100C80007B4B002700268EE7140C1204120C110077
:100C9000370C3604350C794328008C462E0060430F
:100CA0006044834656432100300C804658467943C1
:100CB00040440291844506D98846802149028C46E9
:100CC000E044414602913604010C360C00048B4688
:100CD00081191E0C1B041B0C0391190079438C46CF
:100CE000280075436544A8465843050C454477439E
:100CF000A94203D9802149028C466744290C8C46BD
:100D000039000004000C2D042D186144AB440591FA
:100D10005946049101990F043F0C080C39005143C6
:100D20004243904602008C46090C8B4662437C434A
:100D300044445C44A04503D980214902884642448A
:100D4000210C884661460904090C8C463900594338
:100D5000434370437E430F0CF6182404BE196444C9
:100D600042448C46B34203D980235B0298464044F8
:100D7000029B61469846049B370443449B46AB451F
:100D8000AD416B420D0405992D0C8C467F196744CB
:100D9000FD18A8465D462D19A542A441934664421C
:100DA000A446C344DC448F42BF4198459B419345D0
:100DB0009241A445A4415B427F421F43360C5242FC
:100DC0006442BF192243BF18624638184302D20D4D
:100DD000039913436A020A43501E82416146ED0D96
:100DE0002A434E023243D90100D4B3E00126500811
:100DF00032400243DE0732435B08224C5444002C4D
:100E000062DD510709D00F201040042805D0101DC5
:100E10009042924152429B180200D90104D580248D
:100E20001948E400034054441848844200DD27E791
:100E30005E075B02D2081F0B630516435B0DB2E62B
:100E4000002399460133042700269B4664E60323CA
:100E5000019781460C279B465EE60122012017433D
:100E6000002276E6032303201F43434671E6C04673
:100E7000FF07000001FCFFFFD4870008FFFF0F8081
:100E80000DFCFFFFFF030000FFFFFFFEFE07000059
:100E90000023802700933F030026434B83E6019BFA
:100EA0003200A446584670E6AC466EE680270199AB
:100EB0003F0339422DD03B422BD11F433F033F0B11
:100EC00000951600384B6EE601252D1B382D00DDF0
:100ED00066E61F2D40DC35481C0050441600824059
:100EE0008440EE40501E824134431443EB4062077D
:100EF00009D00F222240042A05D02200141D94425A
:100F0000804140421B181A023ED5012300270026CB
:100F100049E68027019B3F031F433F033F0B00949B
:100F2000214B40E603005A46283B9A400026019296
:100F30006DE6584600F092FC203057E6030052461A
:100F4000283B9A401300002293E6504600F086FCAE
:100F500020307BE6CA4650E71F201E004042041B9B
:100F6000E640202D03D0124C5444A3401A43501E97
:100F70008241324307260027164009D00F20002364
:100F8000104014000428B9D122005E075B021F0B39
:100F9000D2081643002306E680273F031F433F0382
:100FA0003F0B1600004BFEE5FF0700001E0400008B
:100FB0003E040000F8B557464E464546DE460C0056
:100FC0000903E0B5490A460F5F0031431E03DB0FFA
:100FD000760A9B46530F3343C84E6500C000E40FAA
:100FE000D2006D0DA24681467F0D9C469046B742C9
:100FF00000D1B9E05B46012673409B46EE1BA3453A
:1010000000D183E0002E63DD002F00D0B1E0634605
:10101000134300D123E1731E002B00D0BAE1861ADE
:101020006346B04280410125C91A4042091A0B02A9
:1010300000D447E149024B0A98464346002B00D1B1
:1010400089E1404600F00AFC0300083B1F2B00DD4D
:101050007CE120223000D21A4146D0409940020063
:101060009E400A439D4200DD6AE15D1B6B1C1F2B05
:1010700000DD94E1202110003500C91A8E40DA40CD
:101080008840DD40711E8E41110007222843002553
:1010900006433240002A09D00F233340042B05D0E9
:1010A000331DB342B641764289191E000B0200D4AB
:1010B0003DE26A1C914B55056D0D9A4200D119E134
:1010C0008F4AF6080A40570752023743120B9BE03B
:1010D000002E00D0C5E06E1C7605760D012E00DCDA
:1010E00048E16746861ACB1BB042BF417F42B846F3
:1010F0001F004346FF1A3B00B8461B0200D55FE1C4
:1011000037439AD100220024002579E0002E00DC2C
:10111000FAE0002F00D18DE0784B9D4267D080230C
:1011200067461B041F43BC46382E00DC52E1634671
:1011300013435A1E93411E188642804140420918AB
:101140000B0200D4BEE06D4B01359D4200D1D2E0D0
:101150006B4A73080A4001210E401E435108D30711
:1011600007221E43324095E71E00164300D045E794
:1011700040E7624B9D423AD0802367461B041F43E1
:10118000BC46382E00DDEBE01F2E00DC3AE13300D8
:101190006746203BDF403B00202E05D04027BF1B89
:1011A0006646BE40324390464646721E96413343E1
:1011B000DAE0002B00D114E26346134300D168E16A
:1011C00080234E07C008C9081B030643194208D0F4
:1011D0006046C008184204D163460100D2085E0789
:1011E0001643F3009946C900720F444D11434B4614
:1011F000DE08424B4F073743CA089D4200D16EE0DC
:1012000012036D05120B6D0D00211203130B0A0D55
:1012100012051A433B4B2D0513402B435B00E4079B
:101220005B082343380019003CBC90469946A2460F
:10123000AB46F8BD6346134311D0731E002B00D09C
:1012400007E1861886428041614440420918012521
:101250000B0237D502257BE73E00614691463500FB
:10126000C5E75C46002D00D0E1E00B000343F3D05E
:10127000731C00D1ACE1214B9F4200D13AE1F34312
:10128000382B00DD6FE11F2B00DD8CE120250E00E7
:10129000ED1AAE40B0460600AA46DE40454635434C
:1012A0002E005546D940A8406346451EA8415B1A0A
:1012B0009C463043161AB242924163465242991AF2
:1012C0003D00B4E607223240002A00D0E4E60B4B92
:1012D000F6084F073743CA089D4200D090E73B000D
:1012E000134300D1A6E180231B031A431203120B00
:1012F000024D89E715000022002785E7FF0700005F
:10130000FFFF7FFFFFFF0F80002E00D0C7E06B1CA8
:101310005E05760D012E00DCF0E0C84DAB4200D139
:10132000B9E085180A008542894162444942511852
:101330000722CE076D082E43490832401D00A9E65A
:10134000BF49ED1A114007223240A3E63200283887
:101350008240002686E6300000F080FA203073E6F6
:10136000634613435A1E9341C61AB042804140421D
:10137000091A5CE60E00674606431743002D5ED14E
:10138000002E00D0F3E0002F00D11EE15C46614644
:1013900091462CE7A94FBE427BD01E00F1E610001B
:1013A0001F3DE840202B03D04021CB1A9A40164322
:1013B000731E9E410722064332400021002583E729
:1013C000161A6346B2428041591A40420B1A984697
:1013D0005C4632E61F2E00DDABE02027BB1B9A46A1
:1013E00063465746BB40994613004F46F3401F43A0
:1013F0003B005746BA40571EBA4113436246F2407B
:10140000891898E62027BB1B9A4663465746BB407F
:10141000994613004F46F3401F433B005746BA40DE
:10142000571EBA4113436246F240891A9CE7834B28
:101430009F425FD080252D047342294320E7002E70
:101440000CD1002F00D1D0E05C46614691467B4D27
:10145000CDE67A4FBE421CD01E0065E6002F18D0A4
:10146000C0084E0706438020C9080003014208D087
:101470006346DC08044204D12100DA46D2085E0744
:101480001643F300994601245346C900720F1143D5
:101490001C406A4DABE61D0000220027B4E6002D7B
:1014A00059D10B00034300D1D6E6731C00D1B2E042
:1014B000624B9F421ED0F343382B6FDC1F2B00DDA5
:1014C00097E020250E00ED1AAE40B0460600AA4671
:1014D000DE40454635432E005546A840D940451EBE
:1014E000A8418C440643B618964292415142614449
:1014F0003D0025E63D006146914678E60B0003433A
:10150000002D00D055E6002BF5D06346134300D1E3
:101510006DE68618864280416144404209180022E7
:101520000B0200D4D0E6464B01351940B2E5B14676
:101530005DE633006746203BDF403B00202E05D0B0
:101540004027BF1B6646BE40324390464646721E49
:1015500096413343EFE5394B9F42CBD080252D0494
:1015600073422943A8E70843411E8841A2E6002FA1
:1015700000D13CE66346861ACF1AB0429B415B42DB
:10158000FB1A98461B024ED5161A6346B242924188
:10159000591A5242891A5C4600227BE501430E002B
:1015A000711E8E419FE71D000E00203DEE40B046AB
:1015B000202B04D04025EB1A994008438146484629
:1015C0004346411E8841184374E60022002417E672
:1015D000161A6346B2429241591A5242891A3D0084
:1015E00025E561469146154D01E68022002412034F
:1015F00079E61D000E00203DEE40B046202B04D0C1
:101600004025EB1A9940084381464E464346711ED9
:101610008E411E4367E7861896429B4161445B42B8
:10162000C9183D008CE547463743CED007224146D6
:10163000324049E600273A00E6E5C046FF070000D1
:10164000FFFF7FFF30B5144D0A034B00120B5B0DFB
:10165000C90F0024AB4211DD104CA34210DC8024E2
:10166000640322430E4CE41A1F2C0CDD0D48C31AF0
:10167000DA4013005C42002900D11C00200030BD7C
:10168000094BCC18FAE7094DE040AC4663449A4058
:1016900013000343EEE7C046FE0300001D040000F4
:1016A0003304000013040000FFFFFF7FEDFBFFFF8A
:1016B0004100090E4B1C70B5DBB24602750AC40F1F
:1016C000012B14DDE0239B006D07360BCB180021A6
:1016D0000A0D280012051C4D32435B052A405B08A9
:1016E00013435B00E4075B082343190070BD002926
:1016F00014D1002D1ED0280000F0B0F80A281CDC00
:101700000B232A001B1ADA40030015339D400F4BB0
:1017100012031B1A5B05160B5B0DD8E7002D06D0D4
:10172000320B802636036D071643094BCFE7084B73
:101730000026CCE700230026C9E703002A000B3B64
:101740009A400025E3E7C046FFFF0F8089030000B1
:10175000FF070000F0B54C00640D0B03621C5B0A30
:10176000460F5205C90F1E43C500520D012A29DD3F
:10177000374BE718FE2F1CDC002F3BDD8001431E9A
:1017800098410722F3006D0F03432B431A40002AB0
:1017900004D00F221A40042A00D004338022D2043D
:1017A0001A4024D00137FAB2FF2F02D09B01580A09
:1017B00001E0FF2200204002D205400AC907104381
:1017C0000843F0BD3543002C04D1002D0AD100227E
:1017D0000020F0E7002DECD08020C0033043FF2232
:1017E000E9E7002400235B02580AE2B2E3E7DB08E2
:1017F0003C00F8E73B001733F3DB80231B04334343
:101800001E26F61B1F2E14DD02225242D71B1A0081
:10181000FA401700202E04D00E4A94466444A34098
:101820001D432B005D1EAB4107223B431A4000279E
:10183000ADE7094A2800A218954093406C1EA541C7
:10184000F04007222B4303431A4000279FE7C0467E
:1018500080FCFFFFA2FCFFFF82FCFFFF1C21012395
:101860001B04984201D3000C10391B0A984201D383
:10187000000A08391B09984201D30009043902A261
:10188000105C40187047C0460403020201010101C8
:10189000000000000000000010B5002903D1FFF790
:1018A000DDFF203002E0081CFFF7D8FF10BDC04666
:1018B0000023C25C0133002AFBD1581E7047000090
:1018C00002B4714649084900095C49008E4402BCD3
:1018D0007047C04603460B437FD4002243088B4227
:1018E00074D303098B425FD3030A8B4244D3030BA7
:1018F0008B4228D3030C8B420DD3FF22090212BA6C
:10190000030C8B4202D31212090265D0030B8B42E7
:1019100019D300E0090AC30B8B4201D3CB03C01AD1
:101920005241830B8B4201D38B03C01A5241430BAC
:101930008B4201D34B03C01A5241030B8B4201D39C
:101940000B03C01A5241C30A8B4201D3CB02C01A07
:101950005241830A8B4201D38B02C01A5241430A7F
:101960008B4201D34B02C01A5241030A8B4201D36E
:101970000B02C01A5241CDD2C3098B4201D3CB0115
:10198000C01A524183098B4201D38B01C01A5241C4
:1019900043098B4201D34B01C01A524103098B42C8
:1019A00001D30B01C01A5241C3088B4201D3CB00B3
:1019B000C01A524183088B4201D38B00C01A524196
:1019C00043088B4201D34B00C01A5241411A00D246
:1019D00001465241104670475DE0CA0F00D04942AF
:1019E000031000D34042534000229C4603098B421F
:1019F0002DD3030A8B4212D3FC22890112BA030AA7
:101A00008B420CD3890192118B4208D38901921128
:101A10008B4204D389013AD0921100E08909C309AD
:101A20008B4201D3CB01C01A524183098B4201D3AF
:101A30008B01C01A524143098B4201D34B01C01A9A
:101A4000524103098B4201D30B01C01A5241C30812
:101A50008B4201D3CB00C01A524183088B4201D381
:101A60008B00C01A5241D9D243088B4201D34B009C
:101A7000C01A5241411A00D20146634652415B10DE
:101A8000104601D34042002B00D5494270476346BF
:101A90005B1000D3404201B50020FEF7BFFB02BD42
:101AA0000029F8D016E770478446101C62468C4621
:101AB000191C634600E0C0461FB500F0EFFB00288C
:101AC00001D40021C8421FBD10B500F047FB4042C1
:101AD000013010BD10B500F0E1FB002801DB002053
:101AE00010BD012010BDC04610B500F0D7FB002886
:101AF00001DD002010BD012010BDC04610B500F072
:101B000069FB002801DC002010BD012010BDC0468B
:101B100010B500F05FFB002801DA002010BD0120A5
:101B200010BDC046F0B54F464646D6460C000903E8
:101B3000C0B5490A470F5E0039431F03DB0F9C46BF
:101B400065007B0A570F1F436D0DE40F760DA1460C
:101B5000C000B846D200AB1B64457BD0002B5FDDD4
:101B6000002E00D0A4E03E00164300D112E15E1E1C
:101B7000002E00D09EE1871A4346B84280410125DD
:101B8000C91A4042091A0B0200D431E149024E0A37
:101B9000002E00D16EE13000FFF760FE0300083B2D
:101BA0001F2B00DD61E120223900D21A9E40D14076
:101BB0009F400E439D4200DD51E15D1B6B1C1F2BBE
:101BC00000DD7CE12021C91A3D0030008F408840B3
:101BD000DD40791E8F41310007222843D94000257E
:101BE00007433A40002A09D00F233B40042B05D07D
:101BF0003B1DBB42BF417F42C9191F000B0200D4ED
:101C000026E26A1CC64B55056D0D9A4200D106E1CD
:101C1000C44AFF080A40530752023B43120B8EE0AE
:101C2000002B00D0B8E06B1C5B055B0D012B00DCCA
:101C300030E1871A4346B842B641CB1A76429E1B22
:101C4000330200D54CE13B003343A1D100220024F4
:101C5000002570E0002B00DCE5E0002E00D183E0E1
:101C6000AF4EB54260D0802636043743B846382B95
:101C700000DC3EE1434613431F007A1E97413F18A4
:101C800087428041404209180B0200D4B0E0A44BC7
:101C900001359D4200D1C3E0A24A7B080A400121E0
:101CA0000F401F435108D30707221F433A4099E7CB
:101CB0009B4EB54238D0802636043743B846382B81
:101CC00000DDDCE01F2B00DC30E11E004746203E3B
:101CD000F740BC46202B04D04026F31A46469E40CF
:101CE0003243170063467A1E97411F43CCE0002B16
:101CF00000D104E24346134300D159E14B07C00829
:101D000018438023C9081B03194208D04546ED0833
:101D10001D4204D14346D008590708432900420F09
:101D2000C9007F4D1143C0004B07CA087C49C00859
:101D300003438D4268D012036D05120B6D0D002117
:101D400012031800130B0A0D12051A43764B2D05CA
:101D500013402B435B00E4075B08234319001CBCC2
:101D600090469946A246F0BD3E00164312D05E1E34
:101D7000002E00D000E18718874280414144404254
:101D8000091801250B0233D5022585E76446330087
:101D9000414610001D00C7E7002D00D0DAE00C001E
:101DA0000443F3D05C1C00D19FE15D4CA64200D1FE
:101DB0002FE1DB43382B00DD66E11F2B00DD83E1E3
:101DC00020240500E41A0F00DD40D940A04043461E
:101DD000A7405B1A441EA04198462F433843171A68
:101DE000BA42924143465242991A64463500CAE6C5
:101DF00007223A40002A00D0F6E64B07CA084849B5
:101E0000FF083B438D4296D11900114300D19EE15A
:101E1000802109030A431203120B414D8FE715007D
:101E2000002200238BE7002B00D0C7E06B1C5F056E
:101E30007F0D012F00DCF1E0394DAB4200D1B9E05C
:101E400085180A00854289414244494251180722B7
:101E5000CF076D082F4349083A401D00C2E607220C
:101E60003049ED1A31403A40BCE63E002838864001
:101E700000279FE63800FFF7F1FC20308EE643464E
:101E800013431F007A1E9741C71BB842804140424E
:101E9000091A78E60E003B0006431343002D61D17A
:101EA000002E00D0F4E0002B00D11BE16446390085
:101EB000100039E71A4FBB427AD03300FFE63000FA
:101EC0001F3DE840202B03D04021CB1A9E403743D2
:101ED0007B1E9F41072207433A400021002589E7E6
:101EE000171A4346BA42B641591A76428E1B6446C7
:101EF0004EE61F2B00DDADE020264746F61AB74020
:101F0000B9461700B246DF404E463E4337005646BC
:101F1000B240561EB24117434246DA408918AEE637
:101F2000FF070000FFFF7FFFFFFF0F8020264746CF
:101F3000F61AB740B9461700B246DF404E463E4358
:101F400037005646B240561EB24117434246DA4069
:101F5000891A99E77F4CA6425BD0802424045B4217
:101F6000214327E7002E0CD1002B00D1CBE06446A3
:101F700039001000774DD7E6764FBB4218D03300BA
:101F800075E6002B14D04B07C00818438023C908FE
:101F90001B03194207D0FC081C4204D17907D00862
:101FA0000843E14621004C46420FC9001143C000DE
:101FB000684DB9E61D0000220023C0E6002D5BD16C
:101FC0000D00054300D1E2E65D1C00D1B0E0614D9B
:101FD000AE421FD0DB43382B71DC1F2B00DD96E0B7
:101FE00020250F00ED1AAF40B9460700AA46DF4092
:101FF0004D463D432F005546A840D940451EA841B7
:1020000088440743BF1897429241514241443500EA
:102010003AE6644635004146100085E60B0003436E
:10202000002D00D063E6002BF5D04346134300D1CA
:102030007AE68718874280410722414440420918C6
:102040003A400B0200D4D5E6434B01351940C9E5AF
:10205000380069E61E004746203EF740BC46202B6C
:1020600004D04026F31A46469E403243170063468A
:102070007A1E97411F4302E6364DAE42CAD08025F4
:102080002D045B422943A6E70843411E8841A6E68A
:10209000002B00D148E6871A4346B842B641CB1A16
:1020A00076429E1B33024BD5171A4346BA429241E1
:1020B000591A5242891A072264463A4092E501436E
:1020C0000F00791E8F419DE71C000F00203CE74068
:1020D000202B03D04024E31A99400843411E884135
:1020E00038437CE60022002425E6171A4346BA420C
:1020F0009241591A5242891A6446350043E54146D5
:102100001000144D10E680220024120380E61D000A
:102110000F00203DEF40BC46202B03D04025EB1A9A
:102120009940084307006346781E87411F4369E7CB
:10213000871897429B4141445B42C9183500A3E58B
:102140003B003343CED0072231003A4052E6002311
:102150001A00F4E5FF070000FFFF7FFFF0B54F46D0
:102160004646D6468446C0B58046194E18030F032E
:102170004D00000B5C0082463F0B6D0DC90F914670
:10218000640DDB0F0120B5420AD0B44203D0A54252
:1021900001D157450CD01CBC90469946A246F0BDD3
:1021A00066463E43F7D1AC42F5D154461443F2D1D2
:1021B0000120C845EFD1994207D0002DEBD16346ED
:1021C0001F433800471EB841E5E70020E3E7C0465B
:1021D000FF070000F0B54F464646D6464D00C0B555
:1021E0000E03C90F8A462C491F035C008046360B3C
:1021F0006D0D91463F0B640DDB0F8D421ED08C425E
:1022000016D0002D1ED130438446002C01D13A4314
:1022100023D06246002A1AD09A4529D0514602207E
:102220000139084001381CBC90469946A246F0BDD1
:1022300039001143E5D002204042F4E73043FAD19F
:10224000AC420FD0002C0FD13A43E7D00CE0012272
:10225000013B934318000130E5E763460020002B63
:10226000E1D0DBE73A43E6D19A45D7D1A542D5DCA8
:10227000A54205DBBE42D1D808D00020BE42D2D252
:1022800050460123013898430130CCE7C845C5D8F2
:102290000020C845F4D3C6E7FF070000F0B54F465D
:1022A0004646D6464D00C0B50E03C90F8A462E4994
:1022B0001F035C008046360B6D0D91463F0B640D8D
:1022C000DB0F8D4218D08C4211D0002D18D1304335
:1022D0008446002C1ED13A431CD163460020002BBB
:1022E00030D0514602200139084001382AE0390037
:1022F0001143EAD0022025E03043FBD1AC4226D086
:10230000002C26D13A4324D15146022001390840FD
:10231000013817E06246002A0FD09A45E1D1A54264
:1023200005DBBE42DDD819D00020BE420AD250469D
:10233000012301389843013004E00122013B93431B
:10234000180001301CBC90469946A246F0BD3A43A5
:10235000D0D19A45C5D1A542C3DCE0E7C845C0D875
:102360000020C845E3D3EDE7FF07000070B50C4E31
:102370000D031C0349005B002D0B490D240B5B0D65
:10238000B14208D0064900208B4203D114432000FB
:10239000441EA04170BD05430120002DFAD1F1E794
:1023A000FF07000070B500282DD0C317C5185D4089
:1023B000C40F2800FFF752FA154B1B1A5B055B0D83
:1023C0000A2815DD0B38854000222D032D0B002136
:1023D00010002D030A0D2D0B12052A430D4D1B0570
:1023E0002A4013435B00E4075B082343190070BDD8
:1023F00002002900153291400A000B21081AC5403D
:102400002D032D0BE3E70024002300250022DEE747
:102410001E040000FFFF0F8010B5041E25D0FFF73B
:102420001DFA144B1B1A5B055B0D0A2812DD0B38D5
:10243000844000222403240B0021100024030A0DF1
:10244000240B120522430C4C1B05224013435B0056
:10245000590810BD02002100153291400A000B21DD
:10246000081AC4402403240BE6E7002300240022BA
:10247000E2E7C0461E040000FFFF0F8000B587B0F2
:102480000D4B596B8022D2010A435A63D96A02224A
:102490001143D962DB6A13400093009BC023019370
:1024A00002920023039301320492059301A9034889
:1024B00000F066F907B000BD0010024000040050B3
:1024C00030B587B00E4AD16A01231943D162D26A6E
:1024D0001A400092009A8025AD0001950293039363
:1024E00001330493A024E40501A9200000F048F979
:1024F00000222900200000F094FA002007B030BD2F
:102500000010024010B58021A0208900C00500F015
:102510008EFA002010BD000010B586B004001F4ADE
:10252000D06A02231843D062D26A1A400092009AFD
:1025300080221201019203930493002920D0184BAA
:10254000029301A9174800F01BF9E400164B1C196F
:102550001649200003F0FDFE002819D1144A00217D
:10256000200003F0EFFE002815D100220F210730D4
:1025700000F0B0F8072000F0DDF8002006B010BD34
:102580000023029301A9074800F0FAF80020F5E7BC
:1025900004204042F2E704204042EFE700100240EE
:1025A0000000111000040050000000200B00000685
:1025B000CD25000810B580210901034800F02AFA52
:1025C0004342584110BDC0460004005010B50020E1
:1025D00002F0A6FC10BD000010B50A4B0360E12319
:1025E0005B02436000238360C36003610C2242618D
:1025F0008361C3610362436201F0DCFD002800D007
:10260000012010BD0038014010B5012810D882000B
:102610000A4B9B189B680A4CC00103510419200007
:10262000FFF72CFF2000FFF7D7FF002803D110BDD4
:1026300002204042FBE704204042F8E7000000206F
:102640001406002010B50400094B1868FA2189000F
:10265000FDF75AFD00F078F8002801D0012010BDE8
:10266000013000222100404200F034F80020F6E75B
:102670001000002010B5084A136840210B43136076
:102680000020FFF7DFFF041E02D00124200010BD50
:1026900003F07AFEFAE7C04600200240024A1368BF
:1026A000013313607047C04694060020014B186840
:1026B0007047C0469406002070B50400FFF7F6FF8F
:1026C0000500631C00D00134FFF7F0FF401BA0425F
:1026D000FAD370BD70B5002811DB8408134DC034E7
:1026E000A400625903231840C000FC331E0086403A
:1026F000B24389010B4083401343635170BDC0B2A4
:102700000F220240083A920806329200084BD31872
:102710005D6803242040C000FF2214008440A543CC
:1027200089010A4082402A435A60E7E700E100E05D
:1027300000ED00E01F2318401E3B8340014A136058
:102740007047C04600E100E001380A4B98420FD8BC
:10275000094A50600948036A1B021B0AC021090686
:102760000B4303620023936007331360002070471C
:102770000120FCE7FFFFFF0010E000E000ED00E0BB
:10278000F0B5C64600B5002338E0052600E0002677
:10279000AE4035003D430234A400554EA551554C82
:1027A00025684246D4432E0026404A68D20302D50B
:1027B000424615432E004F4D2E606D682E00264078
:1027C0004A68920302D5424615432E00494D6E6079
:1027D000AD682E0026404A68D20202D54246154313
:1027E0002E00444DAE60ED682C404A68920202D53E
:1027F00042462A4314003F4AD46001330A68140059
:10280000DC4072D001249C4022409046F5D04D68B7
:10281000022D01D0122D0ED1DD080835AD002F5844
:1028200007261E40B6000F22B24097430A69B24005
:1028300016003E432E504D686E1E012E03D9112DF9
:1028400001D0122D12D185685F000326BE40B5432A
:102850002E00CD68BD40354385604568A5434A6874
:102860001609012434409C402C43446007685E00F4
:1028700003242500B540ED432F404A681440B4407E
:102880003C430460C46825408C68B4402C43C46059
:102890004A68D200B1D5184D6C6B012634436C6385
:1028A0009C08A51CAD00124EAF5903261E40B50072
:1028B0000F26AE40B743A026F605B04200D166E72A
:1028C0000E4EB0420BD00E4EB0420AD00D4EB0426A
:1028D00009D00D4EB04200D157E7062658E7012631
:1028E00056E7022654E7032652E704BC9046F0BDA3
:1028F00000000140000401400010024000040050AC
:1029000000080050000C0050001C0050F0B5D646E6
:102910004F464646C0B5002306E0052500E00025E9
:102920009540A5424FD001330A00DA4061D0012220
:102930009A400C001440A446F5D006685D000324BC
:10294000A2462700AF403D003E430660DF0808373F
:10295000BF003C58A14607261E40B6000F24A046E3
:10296000B44026004C46B4433C508668ED432E40AC
:102970008660466896434660C2681540C5609E08FA
:10298000B51CAD001D4AAD5852461A40920047464C
:1029900097402C003C40A025ED05A842BFD0184D23
:1029A000A8420AD0174DA84209D0174DA84208D016
:1029B000164DA842B1D00625B2E70125B0E70225A1
:1029C000AEE70325ACE70D4DB21C92005459BC4351
:1029D00054510F4C25686246D24315402560656806
:1029E00015406560A5681540A560E5682A40E2606D
:1029F00099E71CBC90469946A246F0BD00000140F4
:102A00000004005000080050000C0050001C005052
:102A10000004014003690B4201D1002070470120EE
:102A2000FCE7002A01D1816270478161FCE74369BC
:102A3000594041617047000010B5264BD9680C23FE
:102A40000B40082B42D00C2B11D0042B09D0214B6A
:102A50005A68520B0723134001338020000298402C
:102A600010BD1C4B1B68DB0632D51B48F8E78A0CEF
:102A70000F231340194AD05C890D03221140013104
:102A8000144BDB68DB030DD4124B1B68DB0613D53C
:102A90004201121A93019B1ADB001B181802FDF762
:102AA00033FBDDE74201121A93019B1ADB001B186E
:102AB0005802FDF729FBD3E74201121A93019B1A32
:102AC000DB001B189802FDF71FFBC9E70448C7E7A6
:102AD0000448C5E70010024000093D007087000867
:102AE00000127A000024F400F0B583B0041E00D177
:102AF00097E2CA4BDA680C251540DA688026760220
:102B000016400368DB0736D5082D2CD00C2D28D0B5
:102B100063688022520293424DD0A022D202934297
:102B200050D0BE4B1A68BE490A401A601A6880210C
:102B300049020A400192019A1A68BA490A401A6089
:102B40006368002B4AD0FFF7B1FD0700B34B1B6849
:102B50009B0310D4FFF7AAFDC01B6428F6D90320FD
:102B600060E2002ED4D0AD4B1B689B0303D5636895
:102B7000002B00D158E223689B0764D5E368042D3D
:102B80003CD00C2D38D0002B00D1AEE0A3490A6810
:102B90000920824313430B60FFF788FD06009F4B1B
:102BA0001B685B0700D597E0FFF780FD801B0228BC
:102BB000F5D9032036E2994A116880235B020B4362
:102BC0001360BDE7954B19688022D2020A431A6050
:102BD0001968802252020A431A60B1E7FFF766FDC6
:102BE00007008E4B1B689B03C5D5FFF75FFDC01B1D
:102BF0006428F6D9032015E2002EC4D1874A126852
:102C0000520702D5002B00D110E2844E726886492B
:102C10000A40216909020A437260326809218A4325
:102C200013433360FFF708FFF26812090F231340C4
:102C30007E4AD35CD8407E4B18600020FFF702FD2F
:102C4000002800D0EEE12368DB062CD5002D5FD1F3
:102C5000724B1B689B0503D5E369002B00D1E7E1AC
:102C60006E4A536873490B40616A0B435360536863
:102C70001B021B0A216A09060B435360636A590B46
:102C8000013180231B028B40D16809090F220A40C1
:102C900066498A5CD340664A13600020FFF7D2FC85
:102CA000002800D0BEE123681B077DD56369002B97
:102CB00067D05A4A136D01210B431365FFF7F6FCE9
:102CC0000600564B1B6D9B076ED4FFF7EFFC801B75
:102CD0000228F6D90320A5E150494B68524A134017
:102CE0002269120213434B60ADE74C4A136801217D
:102CF0008B431360FFF7DAFC0600484B1B685B0749
:102D0000A1D5FFF7D3FC801B0228F6D9032089E167
:102D1000E369002B22D0414A116880235B000B43FA
:102D20001360FFF7C3FC06003C4B1B689B0506D4F1
:102D3000FFF7BCFC801B0228F6D9032072E1374A5A
:102D400053683C490B40616A0B43536053681B0254
:102D50001B0A216A09060B435360A4E72F4A136834
:102D600035490B401360FFF7A1FC06002B4B1B6895
:102D70009B0598D5FFF79AFC801B0228F6D9032003
:102D800050E1264A136D01218B431365FFF78EFC3A
:102D90000600224B1B6D9B0706D5FFF787FC801BA7
:102DA0000228F6D903203DE123685B0700D48CE0BC
:102DB0001A4B9B6BDB001BD4184A916B80235B057D
:102DC0000B43936301261D4B1B68DB0512D5A368DB
:102DD00080225200934235D0002B4BD10F4B1A6DFD
:102DE00015490A401A651A6D15490A401A652FE0FF
:102DF0000026E8E7114A116880235B000B4313604B
:102E0000FFF754FC07000D4B1B68DB05DFD4FFF711
:102E10004DFCC01B6428F6D9032003E100100240DA
:102E2000FFFFFEFFFFFFFBFFFFE0FFFF7C870008C7
:102E300010000020FF1FFFFFFFFEFFFF007000409B
:102E4000FFFBFFFF7E4A116D80235B000B43136580
:102E5000A368002B28D0FFF729FC0700784B1B6DD7
:102E60009B0530D4FFF722FCC01B764B9842F5D966
:102E70000320D7E0A022D200934209D0704B1A6DF4
:102E800071490A401A651A6D70490A401A65DFE7F0
:102E90006B4B196D013AFF3A0A431A65196D80228E
:102EA00052000A431A65D3E7FFF700FC0700644BA2
:102EB0001B6D9B0507D5FFF7F9FBC01B614B9842C3
:102EC000F5D90320AEE0012E21D023689B063CD526
:102ED000A369002B21D05A4B9968012001439960C6
:102EE0005A6B02435A635A4A116A80239B010B436F
:102EF0001362FFF7DBFB0600514B9B689B0724D452
:102F0000FFF7D4FB801B0228F6D903208AE04C4A45
:102F1000936B50490B409363D7E7494A936801216B
:102F20008B4393604A4A136A4B490B401362FFF785
:102F3000BDFB0600424B9B689B0706D5FFF7B6FB1F
:102F4000801B0228F6D903206CE0A36A002B00D175
:102F500070E00C2D49D0022B12D0394A13683F493A
:102F60000B401360FFF7A2FB0400354B1B689B016D
:102F700039D5FFF79BFB001B0228F6D9032051E04F
:102F80002F4A136835490B401360FFF78FFB05008C
:102F90002B4B1B689B0106D5FFF788FB401B0228C3
:102FA000F6D903203EE02649CB682D4A1340E26A59
:102FB000206B0243606B02431343CB600A6880239B
:102FC0005B0413430B60FFF771FB04001C4B1B6891
:102FD0009B0106D4FFF76AFB001B0228F6D90320E9
:102FE00020E000201EE000201CE0012B24D0144B28
:102FF000DA6880235B021340E16A8B4201D0012032
:1030000010E0F0239B031340216B8B4201D0012081
:1030100008E0C0231B041A40636B9A420ED00120C3
:1030200000E0012003B0F0BD0120FBE70120F9E73B
:103030000120F7E70020F5E70120F3E70020F1E7A2
:103040000010024088130000FFFEFFFFFFFBFFFFA0
:1030500000000140FFFFFFEFFFDFFFFFFFFFFFFE6C
:10306000FFFF02FF70B504000D00002800D1BAE098
:103070005F4B1A68012313408B420BD25C490B68EB
:10308000012293432B430B600B681A40AA4201D0E4
:103090000120A9E023689B0706D5564AD368F02192
:1030A0008B43A1680B43D3602368DB0764D5636857
:1030B000022B09D0032B29D0012B2DD04D4A1268A9
:1030C000920506D401208FE04A4A1268920300D488
:1030D0008BE04849CA68032082431343CB60FFF763
:1030E000E5FA06006368022B1CD0032B28D0012BC5
:1030F00034D0404BDB680C221A423DD0FFF7D6FAA1
:10310000801B3D4B9842F4D903206DE0394A126888
:103110009201DED4012067E0364A12685207D8D403
:10312000012061E0334BDA680C231340082B23D0D5
:10313000FFF7BCFA801B304B9842F3D9032053E0D1
:103140002C4BDA680C2313400C2B15D0FFF7AEFA8A
:10315000801B294B9842F3D9032045E0254BDA68C0
:103160000C231340042B07D0FFF7A0FA801B224B3F
:103170009842F3D9032037E01D4B1A68012313400E
:10318000AB420BD91A490B68012293432B430B60C6
:103190000B681A40AA4201D0012025E023685B0792
:1031A00006D5144AD36815490B40E1680B43D36038
:1031B00023681B0707D50F49CB68114A13402269C2
:1031C000D2001343CB60FFF737FC0A4BDA681209D1
:1031D0000F2313400B4AD35CD8400B4B18600020E0
:1031E000FFF730FA00E0012070BD0120FCE7C04687
:1031F000002002400010024088130000FFF8FFFF8B
:10320000FFC7FFFF7C87000810000020014B1868F3
:103210007047C0461000002010B5FFF7F7FF044BC1
:10322000DA68120A07231340024AD35CD84010BD63
:10323000001002408C87000810B5FFF7E7FF044B31
:10324000DA68D20A07231340024AD35CD84010BD83
:10325000001002408C87000870B5040082231B0117
:1032600002681A425AD0704B9B6BDB0000D593E08A
:103270006D4A916B80235B050B43936301256B4B78
:103280001B68DB0500D489E0674B1A68C0239B03E9
:103290001A4061680B40934200D194E0C0239B0226
:1032A0000A001A409A4200D195E05F4B1B6DC02284
:1032B000920213401FD01140994202D02268920618
:1032C00008D4C0229202A1680A409A4213D023680F
:1032D0001B0510D5544B186D554A02401E6D8021B8
:1032E000090331431965196D524E314019651A654C
:1032F000C30500D576E06368C02292021900114030
:10330000914200D17EE048490B6DC0229202606874
:10331000024013430B65012D00D17DE02368DB07DC
:1033200006D5414AD36C03218B43E1680B43D36438
:1033300023689B0706D53C4AD36C0C218B4321693B
:103340000B43D36423685B0706D5374AD36C3A49ED
:103350000B4061690B43D36423681B0706D5324ACF
:10336000D36C36490B40A1690B43D36423685B06D9
:1033700006D52D4AD36C32490B40216A0B43D364E6
:1033800023681B064ED5284AD36C2E490B40E169B1
:103390000B43D364002070BD002570E7234A1168F9
:1033A00080235B000B431360FFF780F906001F4B7F
:1033B0001B68DB0500D567E7FFF778F9801B6428F9
:1033C000F5D90320E7E7C0239B03A068034093429D
:1033D00000D063E769E7144B1B689B0300D464E7E4
:1033E0000120D8E7FFF762F906000F4B1B6D9B0524
:1033F00000D580E7FFF75AF9801B134B9842F4D9A8
:103400000320C8E708490A6810480240C02080032A
:10341000034013430B6076E70A008B6B0C490B40AB
:1034200093637BE70020B6E7001002400070004085
:10343000FFFFFCFFFFFFF7FFFFF3FFFFFFCFFFFFE3
:10344000FFFFFFFBFFFFF3FF88130000FFFFCFFF2D
:10345000FFFFFFEFF8B506000C0017001D003368F2
:103460009B6823401B1B5A425341BB423BD06B1C01
:10347000F5D0FFF71BF9069BC01AA84201D2002D18
:10348000EDD132685368E0218B43536082235B00A7
:1034900072689A420CD080239B01B26A9A4216D07D
:1034A00051230122F254013B0022F25403201BE07D
:1034B000B36880221202934203D08022D20093424A
:1034C000E9D13268136840218B431360E3E7326827
:1034D000136806490B4013603268116880239B0112
:1034E0000B431360DCE70020F8BDC046FFDFFFFFA1
:1034F00010B582B00400822040006368834206D089
:103500005120205C052811D0002002B010BD00928F
:103510000B00002280212000FFF79CFF0028F4D040
:10352000636D2022134363650320EEE700920B00D6
:10353000002201212000FFF78DFF0028E5D0636DF8
:103540002022134363650320DFE730B583B0040016
:10355000822040006368834218D082204000636864
:10356000834231D18023DB00A06898421DD00092B5
:103570000B00002280212000FFF76CFF00282CD0D8
:10358000636D202213436365032026E0A368802037
:103590000002834203D08020C0008342DDD1206836
:1035A00003684025AB430360D7E700920B0000227D
:1035B00001212000FFF74EFF00280ED0636D20226E
:1035C00013436365032008E000920B0000220121F1
:1035D0002000FFF73FFF002801D103B030BD636D2D
:1035E0002022134363650320F7E7000010B5041E93
:1035F0003BD0002383625133C35C002B2FD0512278
:103600000223A35421680B68402083430B60636846
:10361000A1680B43E1680B4321690B4361690B43CC
:1036200080218900A06901400B43E1690B43216AB5
:103630000B432168A06A03430B60618B04230B409A
:103640002168606A03434B602168CB6908480340E6
:10365000CB61002363650133A354002010BD5033B8
:103660000022C25402F09EFEC9E70120F6E7C046E0
:10367000FFF7FFFFF0B585B00400019116001F00B1
:103680005023C35C012B00D1BFE050230122C25460
:10369000FFF70CF805005123E35C012B08D0022052
:1036A00051230122E254013B0022E25405B0F0BD57
:1036B0000199002900D19AE0002E00D199E0503301
:1036C0000322E254002363652163A686E686A36392
:1036D000A387E3876364236480231B02A2689A4262
:1036E0001DD023681A68520603D41A6840210A4381
:1036F0001A6080231B01E2689A4217D06368002B8E
:1037000001D0012E48D1236B1B7822681373236BE1
:1037100001332363E38E013B9BB2E3863CE02268E6
:1037200011688023DB010B431360DAE76368002B29
:1037300001D0012E14D12368226B1288DA60236B2A
:1037400002332363E38E013B9BB2E38608E0FEF77E
:10375000ADFF401BB84201D37B1C4CD1002F4CD095
:10376000E38E9BB2002B2AD023689A689207EED58D
:10377000226B1288DA60236B02332363E38E013BF2
:103780009BB2E386ECE7FEF791FF401BB84201D302
:103790007B1C34D1002F34D0E38E9BB2002B0ED093
:1037A00023689A689207EED5226B12781A73236BFE
:1037B00001332363E38E013B9BB2E386ECE72A00EF
:1037C00039002000FFF794FE002801D02023636514
:1037D000A368002B06D103932368DA6803929B68E1
:1037E0000393039B636D002B0DD1002058E701204C
:1037F00056E7012054E7032052E7032050E7032057
:103800004EE703204CE701204AE702204EE7F0B5DF
:1038100085B004000E0001921D005023C35C012BF3
:1038200000D108E150230122C254FEF73FFF0700F8
:103830005123E35CDBB26268012B14D08221490082
:103840008A4208D0022051230122E254013B002287
:10385000E25405B0F0BDA268002A00D0DDE0042BE0
:1038600001D00220EFE7002E00D1D8E0019B002B11
:1038700000D1D6E0002D00D1D5E05123E35C042B2C
:1038800002D051230522E25400236365019AA2630A
:10389000E587A5872663E586A58623646364236898
:1038A0001A68520603D41A6840210A431A6080231A
:1038B0001B01E2689A4211D06368002B01D0012DF0
:1038C0000AD1236B1B7822681373236B01332363A4
:1038D000E38E013B9BB2E386012569E06368002B20
:1038E00001D0012D0AD12368226B1288DA60236B84
:1038F00002332363E38E013B9BB2E38601251BE089
:1039000023689A68D2070ED5E28F92B2002A0AD0B5
:10391000DB68A26B1380A36B0233A363E38F013BCD
:103920009BB2E3870125FEF7C1FEC01B0A9B9842AC
:1039300002D3013300D078E0E38E9BB2002B03D199
:10394000E38F9BB2002B51D023689A689207D7D59A
:10395000E28E92B2002AD3D0012DD1D1226B1288EF
:10396000DA60236B02332363E38E013B9BB2E38671
:103970000025C5E723689A68D2070ED5E28F92B278
:10398000002A0AD0DB68A26B1370A36B0133A36318
:10399000E38F013B9BB2E3870125FEF787FEC01B47
:1039A0000A9B984201D3013341D10A9B002B40D09E
:1039B000E38E9BB2002B03D1E38F9BB2002B15D07B
:1039C00023689A689207D5D5E28E92B2002AD1D0A8
:1039D000012DCFD1226B12781A73236B013323632D
:1039E000E38E013B9BB2E3860025C3E73A000A99C8
:1039F0002000FFF77DFD002803D020236365012010
:103A000021E7A368002B00D01DE703932368DA6841
:103A100003929B680393039B15E7022013E70120A1
:103A200011E701200FE701200DE703200BE703203A
:103A300009E7032007E702200BE70000F0B585B097
:103A400004000D0016001F0082235B0042689A42AA
:103A500017D05023E35C012B00D19CE050230122BE
:103A6000E254FEF723FE03905123E35C012B14D0B4
:103A7000022051230122E254013B0022E25405B00E
:103A8000F0BD8368002BE4D151330422C254009767
:103A900033000A00FFF7BBFEF1E7002D6DD0002ECA
:103AA0006DD050330422E25400236365A563A687DA
:103AB000E6872363A386E3862364636480231B0273
:103AC000A2689A420BD023681A68520603D41A6877
:103AD00040210A431A60E368002B10D02CE02268D2
:103AE00013682E490B401360EDE7FEF7DFFD039BE3
:103AF000C01AB84201D37B1C43D1002F43D0E38FBF
:103B00009BB2002B2BD023689A68D207EDD51B7B84
:103B1000A26B1370A36B0133A363E38F013B9BB2D2
:103B2000E387ECE7FEF7C2FD039BC01AB84201D35E
:103B30007B1C2AD1002F2AD0E38F9BB2002B0ED002
:103B400023689A68D207EDD5DB68A26B1380A36B5C
:103B50000233A363E38F013B9BB2E387ECE7039A55
:103B600039002000FFF7F1FC002801D02023636515
:103B7000636D002B0DD100207BE7012079E7012048
:103B800077E7032075E7032073E7032071E703203D
:103B90006FE701206DE7022071E7C046FFBFFFFF1E
:103BA0005123C05CC0B2704770470000D0B504001C
:103BB000016883680269134342691343C26913436E
:103BC0000A68C048024013430B6022685368BE492C
:103BD0000B40E1680B435360A1692268BB4B9A42DA
:103BE00001D0236A19439368B94803400B4393609B
:103BF0002268B84B9A4216D0B74B9A4227D0B34BA3
:103C00009A4239D01023B1498A4257D080221202F9
:103C1000E169914200D18CE0082B00D949E19B0079
:103C2000AE4AD3589F46AE4BD96C03230B40012BB1
:103C300009D0002B05D0022B3AD0032B05D010233E
:103C4000E1E70123DFE70423DDE70823DBE7A44BFB
:103C5000D96C0C230B40042B0AD005D9082B29D092
:103C60000C2B07D10823CEE7002B03D10023CAE792
:103C70000423C8E71023C6E7994BDB6CC021090178
:103C80000B408021C9008B420ED009D98021090147
:103C90008B4211D0C02109018B4207D10823B2E722
:103CA000002B03D10023AEE70423ACE71023AAE7DF
:103CB0000223A8E70223A6E70223A4E7022B2DD0C4
:103CC00007D9042B30D0082B00D0F5E0802000026B
:103CD00007E0002B00D0EFE0FFF79EFA002800D1AC
:103CE000ECE0626853009B18834200D9E8E01303BC
:103CF000834200D206E1070E060250080021801917
:103D000079410023FCF78CFA764BC218764B9A4225
:103D100000D9F9E02368D860002085E0704B1B686B
:103D2000DB0604D47148DCE7FEF786FED6E7704870
:103D3000D7E7082B62D89B006E4AD3589F46FFF7FF
:103D40006BFA400063685B08C0186168FCF7DCF937
:103D500003041B0C002068491A00103A8A4200D95B
:103D6000D4E00F22190091435B08083A13400B433B
:103D70002268D36058E0FFF75FFA400063685B0891
:103D8000C0186168FCF7C0F903041B0C0020E2E7CF
:103D9000534B1B68DB060BD563685808574B9C4692
:103DA00060446168FCF7B0F903041B0C0020D2E703
:103DB00063685808524B9C4660446168FCF7A4F95C
:103DC00003041B0C0020C6E7FEF736FE40006368C4
:103DD0005B08C0186168FCF797F903041B0C00200E
:103DE000B9E76368580880235B029C4660446168B9
:103DF000FCF78AF903041B0C0020ACE70120002328
:103E0000A9E7FFF709FA63685B08C0186168FCF767
:103E10007BF903041B0C002037491A00103A8A4230
:103E200000D975E02268D360002323666366D0BDA5
:103E3000FFF702FA63685B08C0186168FCF764F971
:103E400003041B0C0020E7E7254B1B68DB060BD5A2
:103E500063685808264B9C4660446168FCF754F937
:103E600003041B0C0020D7E7636858081F4B9C46CF
:103E700060446168FCF748F903041B0C0020CBE7A1
:103E8000FEF7DAFD63685B08C0186168FCF73CF96F
:103E900003041B0C0020BFE76368580880231B0243
:103EA0009C4660446168FCF72FF903041B0C00205A
:103EB000B2E701200023AFE70120B5E70020B3E718
:103EC0000120B1E7F369FFEFFFCFFFFF004800409B
:103ED000FFF4FFFF0038014000440040188700084D
:103EE0000010024000FDFFFFFFFC0F000024F40063
:103EF00000093D003C870008EFFF000000127A0037
:103F00000048E80101208FE701208DE701208BE7C1
:103F1000012089E7436ADB0706D5026853682C490C
:103F20000B40816A0B435360436A9B0706D50268C6
:103F3000536828490B40C16A0B435360436A5B07CF
:103F400006D50268536824490B40016B0B4353604C
:103F5000436A1B0706D50268536820490B40416B32
:103F60000B435360436ADB0606D5026893681C491D
:103F70000B40816B0B439360436A9B0606D5026836
:103F8000936818490B40C16B0B439360436A5B060F
:103F90000BD50268536814490B40016C0B43536006
:103FA00080235B03026C9A420AD0436A1B0606D543
:103FB000026853680D490B40816C0B435360704796
:103FC000026853680A490B40416C0B435360ECE7AD
:103FD000FFFFFDFFFFFFFEFFFFFFFBFFFF7FFFFF78
:103FE000FFEFFFFFFFDFFFFFFFFFEFFFFFFFF7FF29
:103FF000FFFF9FFFF0B5C64600B506000C00170096
:104000009846069D3368DB6923401B1B5A42534187
:10401000BB421CD16B1CF5D0FEF748FB4346C01ACF
:10402000A84201D8002DEDD1326813680A490B402F
:10403000136032689368A331FF318B439360202370
:104040007367B36750330022F254032000E000206E
:1040500004BC9046F0BDC0465FFEFFFFF0B585B0E2
:1040600004000E0017001D00436F202B5FD10029B4
:1040700060D0002A60D080235B0182689A4218D009
:104080007023E35C012B59D070230122E2540023FA
:10409000E36721336367FEF709FB03905023E75280
:1040A0000233E75280235B01A2689A4208D00027BE
:1040B00016E00369002BE3D1CB07E1D5012037E0FF
:1040C0002369002B21D000270AE03B882268DB050A
:1040D000DB0D936202375222A35A013B9BB2A352DB
:1040E0005223E35A9BB2002B12D00095039B00226F
:1040F00080212000FFF77EFF002821D1002EE4D090
:10410000327823689A620136E5E737000026E7E750
:104110000095039B002240212000FFF76BFF002841
:1041200010D12023636750330022E25400E00220C4
:1041300005B0F0BD0120FBE70120F9E70220F7E719
:104140000320F5E70320F3E730B583B00400002334
:10415000C367FEF7ABFA050023681B681B070CD486
:1041600023681B685B0715D420236367A36750335C
:104170000022E254002003B030BD80210C4B00939C
:104180000300002289032000FFF734FF0028E7D056
:104190000320F0E78021064B00932B000022C90387
:1041A0002000FFF727FF0028DED00320E3E7C0460A
:1041B000FFFFFF0110B5041E2ED0436F002B21D04E
:1041C000242363672268136801218B431360200056
:1041D000FFF7ECFC012814D0636A002B18D1226889
:1041E00053680E490B405360226893682A218B4321
:1041F00093602268136829390B4313602000FFF78E
:10420000A3FF10BD70330022C254FFF7CDFCD7E7E7
:104210002000FFF77FFEE2E70120F2E7FFB7FFFF94
:1042200070B58AB01D0003AC20706170A27001AE41
:1042300007220021300002F0A0F904A80023059312
:104240003F3303804B3343808460873BC360066108
:1042500004334361002100F019FC002815DB01AB99
:10426000187800280FD11A00019B1B021B0C2B8011
:10427000D17813791B020B430E990B8053681B02F4
:104280001B0C0F9A13800AB070BDFF20FBE7F0B53E
:104290008DB00F001600019305AC207003AD07220E
:1042A0000021280002F069F906A8002307933F3394
:1042B00003804B3343808460893BC36005610633D0
:1042C0004361002100F0E2FB002814DB03AB187807
:1042D00000280ED11A0003990B021B0C3B80D178E9
:1042E00013791B020B43338053681B021B0C019A8A
:1042F00013800DB0F0BDFF20FBE7F0B595B0009343
:104300001AAB1F781BAB1E781DAB1C786D46E9807D
:1043100001AB1A8033190E33282B49D803AD28700E
:104320000222694606310D20684402F01DF902227E
:1043300001A90F20684402F017F9009B6B71AF715F
:10434000EE7132001C9905A802F00EF93300083313
:10435000DBB2EC540936F6B2A81922001E9902F01D
:1043600003F9A419E4B2281902221FA902F0FCF8EB
:10437000A01CC0B22818022220A902F0F5F80434CB
:10438000E4B20EA800230F933F33038044334380ED
:104390008560C4604C3B6B44036101234361002191
:1043A00000F074FB002806DB37236B44187800E02C
:1043B000422015B0F0BDFF20FBE7F0B5CE464746E2
:1043C00080B591B00192994618AB1B78984619AB0D
:1043D0001F781A9D1BAB1E7803AC207061701022F1
:1043E000019902AB981D02F0BFF84B46A3744346F7
:1043F000E3742775192302AA944663441D702A0AA0
:104400005A702A0C9A702D0EDD7066760AA8002369
:104410000B933F3303804733438084606C3BC3601E
:1044200063460333036101234361002100F02EFB47
:10443000002806DB02ABD87811B00CBC9046994638
:10444000F0BDFF20F8E710B588B002AC0C220021C7
:1044500003A802F092F83F2323800223FF336380F6
:104460006B4607332361012363610021200000F0C4
:104470000DFB002803DB6B46D87908B010BDFF2088
:10448000FBE770B58CB016001D006B461870012854
:104490002ED0102422006B46581C02F065F8631CD5
:1044A0006A46D654A31CD554033405AD032200211B
:1044B000280002F062F806A8002307933F33038028
:1044C000C33343806B468360C4600561032343614B
:1044D000002100F0DBFA00280CDB05AB187800287F
:1044E00004D1059B1B021B0C109A13800CB070BDED
:1044F0000224CFE7FF20F9E7F0B5DE4657464E46E7
:104500004546E0B591B000929B461AAB1B789A469F
:104510001BAB1B7899461CAB1B7898461DAB1F78CC
:104520001EAB1E786B46D88002AB188099700129AB
:1045300040D0102402AD220000990B20684402F004
:1045400013F8E31C5A46EA54231D5246EA54631DED
:104550004A46EA54A31D4246EA54E31DEF54013390
:10456000EE54093409AE03220021300002F005F8B0
:104570000AA800230B933F330380C5334380856033
:10458000C4600661023BFF3B4361002100F07EFAFC
:10459000002811DB09AB1878002804D1099B1B0205
:1045A0001B0C1F9A138011B03CBC90469946A24642
:1045B000AB46F0BD0224BDE7FF20F4E7F0B5DE46D0
:1045C00057464E464546E0B5ABB034AC2478A346DA
:1045D00035AC247837AD2D78AA4638AD2D78A9466C
:1045E00039AD2D78A8463AAD2F783BAD2D780095A2
:1045F0006D46E88001AD298003AD28800E20684417
:1046000001802A71012A4FD0102503AE2A0019001B
:104610001120684401F0A8FF6B1D5A46F254AB1DEF
:10462000F454073563190533802B3FDC03AE701952
:104630002200369901F098FF6419E4B253463355CD
:10464000631CDBB24A46F254A31CDBB24246F2546E
:10465000E31CDBB2F754231DDBB2009AF25405349D
:10466000E4B223AD03220021280001F086FF24A834
:10467000002325933F3303800623FF334380866066
:10468000C4600561033BFF3B4361002100F0FEF97C
:10469000002813DB23AB1878002808D1239B1B02CA
:1046A0001B0C3C9A138002E00225AEE742202BB09F
:1046B0003CBC90469946A246AB46F0BDFF20F6E7CB
:1046C00030B5ABB01C006B46D88001AB1980A31D80
:1046D000802B27DC03AD83B22B8089B20E236B4481
:1046E00019802A716C7122002E991220684401F001
:1046F0003BFF0634E4B224A8002325933F33038014
:10470000C73343808560C460773B6B4403610123FA
:104710004361002100F0BAF9002806DB8F236B44C7
:10472000187800E042202BB030BDFF20FBE700B539
:1047300089B001AB188002A8002203923F320280A8
:104740002822FF32428083600223C3606B4603331A
:10475000036101234361002100F098F9002803DB85
:104760006B46D87809B000BDFF20FBE730B5A9B093
:104770000C001100A31C802B20DC01AD28706C7094
:1047800022006B46981D01F0EFFE0234E4B222A82D
:10479000002323933F330380333B43808560C46011
:1047A0007B336B44036101234361002100F06EF908
:1047B000002806DB87236B44187800E0422029B0EC
:1047C00030BDFF20FBE700B589B001AB1870597010
:1047D00002A8002203923F320280303A4280836076
:1047E0000223C3606B46033303610123436100214D
:1047F00000F04CF9002803DB6B46D87809B000BD07
:10480000FF20FBE730B585B005000C0002AB00933C
:104810000A236B440E226A4403A90F20684400F067
:1048200033F8C0B2002811D103AB1B881A0A2A70D2
:104830001B029AB202AB1D8829090901FF230B4014
:1048400013431BB20F222A401343238005B030BD0F
:1048500010B588B002AC0C22002103A801F08DFE37
:104860000323238063806B46073323610123636145
:104870000021200000F00AF9002803DB6B46D879FC
:1048800008B010BDFF20FBE7F0B58DB007000E00AB
:104890000092019303AD09220021280001F06DFE72
:1048A00006AC0C22002107A801F067FE0423238038
:1048B000033B63802561083363610021200000F021
:1048C000E5F8002817DB03AB1878002811D15A78D7
:1048D0003A705A8832801A7900990A705A6812021E
:1048E000120C01990A80DA791B7A1B021343129A7F
:1048F00013800DB0F0BDFF20FBE770B590B0040051
:104900000D0002AE20220021300001F036FE34708E
:10491000221C1F2C00D91F22D2B229000920684472
:1049200001F022FE0AA800230B9308330380013311
:10493000438002AB83602023C3606B46073303616F
:1049400001234361002100F0A1F8002803DB6B463E
:10495000D87910B070BDFF20FBE7037A042B01D09B
:1049600001207047827A8433C35C033B9A4201D1B1
:104970000020F6E70220F4E730B5A3B015001C00D4
:104980008905890D8002084301A908808A7002AB5D
:1049900001221A7002320920684401F0E5FD2A0064
:1049A000210003A801F0E0FD044B1B69002B02D09D
:1049B000291D02A8984723B030BDC0460002002040
:1049C00000B583B007E001A9064800F0A0F90199FD
:1049D000054800F084F9044800F0BDF90128F2DD33
:1049E00003B000BDA00600209806002030B583B0BB
:1049F00005000C0007E001A9200000F09AF90199D8
:104A0000280000F060F9200000F051F90028F2D0F1
:104A100003B030BD10B5002801D0114BD86100F0B3
:104A200001FC104800F040F90F4800F03DF9002467
:104A300008E08C2161430D4BC9180A4800F04FF97A
:104A40000134E4B2042CF4D9054B1B68002B01D0CF
:104A500000209847024B9B68002B00D0984710BD60
:104A60000002002098060020A0060020200200205E
:104A7000054B02681A60C268DA6002691A618269CD
:104A80009A6182689A60704700020020F0B585B094
:104A900004000E000222835E9B059B0D0288920299
:104AA00013439DB20023039301A800F0FDF8FFF724
:104AB00087FF227B61882088A368FFF75DFF002EB7
:104AC00000D08AE0FDF7F2FD0600FDF7EFFD801B48
:104AD000FA239B00984256D8414800F0E8F8002895
:104AE000F3D103A93E4800F012F903990B7A042B85
:104AF00010D10E000B368433C85C03384B7A0F2B71
:104B000035D018D9102B3ED03E2B03D1CB7A62681A
:104B1000934250D0334800F0CAF8002804D03048FF
:104B200000F0C5F8002851D1039901A800F0D7F88A
:104B300000230393C6E70E2BECD10E7B4B7B1B02AD
:104B40003343AB421FD10E3103386269824200D930
:104B500002006261206901F007FD0399214800F01D
:104B6000B2F801A91E48FFF741FF002017E04F7B74
:104B70008B7B1B023B43AB4205D163680F2B10D0EC
:104B8000CB7A002BC6D00399002902D0154800F03B
:104B90009AF801A91248FFF729FF0120404205B009
:104BA000F0BD6269824200D9020062612069310071
:104BB00001F0DAFCD1E701386269824200D90200D3
:104BC00062610C31206901F0CFFCC6E7039905480A
:104BD00000F085F80023039374E70020DFE7C04668
:104BE000A00600209806002000B583B000230193A2
:104BF00003E001990A4800F072F80A4800F057F8FB
:104C000000280BD101A9074800F081F8064BDB69A9
:104C1000002BEED0019808309847EAE703B000BDBA
:104C200098060020A00600200002002010B582B0E7
:104C300000230193194800F03AF8002802D001201F
:104C400002B010BD01A9154800F061F8144BDB68F3
:104C5000002B20D00198083080219847C0B200284E
:104C600013D0019C8823E0542000FFF776FE002833
:104C700005D121000B4800F032F80020E0E72100C8
:104C8000064800F020F80020DAE70199034800F018
:104C90001AF80020D4E70020D2E7C046980600208A
:104CA00000020020A0060020006040607047EFF383
:104CB000108372B60268824203D0002083F310880A
:104CC00070470120FAE7EFF3108372B602680A60BA
:104CD000486001600A68516083F310887047EFF301
:104CE000108372B6086042684A6041604A68116089
:104CF00083F310887047EFF3108372B6426801683F
:104D0000116002684168516083F31088704770B584
:104D10000C00EFF3108572B603680B600068FFF7B4
:104D2000EAFF2268002313602268536085F310882D
:104D300070BD70B50C00EFF3108572B643680B6060
:104D40004068FFF7D8FF2268002313602268536091
:104D500085F3108870BDEFF3108172B603680022EE
:104D600001E001321B688342FBD181F310881000FF
:104D7000704710B501210020FDF7CEFB0020FDF7A4
:104D80009FFB0020FDF740FC10BD000010B5124B4A
:104D90001B78002B04D1114B1B78002B06D110BDC2
:104DA00001F0FCF90C4B00221A70F4E73220FDF7F9
:104DB00083FC0020FDF7FEFB094B1B785A42534150
:104DC0009842F6D03220FDF777FC0020FDF79AFBE1
:104DD000024B00221A70E2E70D000020DC040020E4
:104DE0000C00002010B58CB0384B1A680A929A88D3
:104DF0000AAB9A80FFF7BDFF0020FDF7DBFBC0B2D6
:104E0000334B187000213348FFF704FE19246C441B
:104E1000162169442000FFF7F5FCFFF719FD642017
:104E2000FDF74AFC2378302B05D92B4B01225A7011
:104E30000AAB01325A7106220AA908A801F094FBB4
:104E400008AA06210020FFF791FCFFF7FCFA224B8D
:104E50005B78012B15D01A236B4407AA1E216944E5
:104E60000120FFF714FA07AB19881E236B4418883A
:104E70001A4B009307230022FFF722FC00280DD0D5
:104E8000FEE719336B44019307AB00931E236B4479
:104E9000072200210120FFF7C3F9E4E7012403946E
:104EA0000F4B02930021019110230093093B0A004C
:104EB0002000FFF782FA00F005FF00F0CDFF04218B
:104EC0002000FFF780FC0CB010BDC04660870008D2
:104ED0000C000020E9620008DC04002014880008AF
:104EE00040E2010010B50C000A4B016819604168EE
:104EF0005960816899600849206808606068486066
:104F0000A0688860054802601800FFF73FFFFFF7C0
:104F10006BFE10BDF8050020EC0500206C0700209A
:104F2000014B01221A707047DC04002000B587B0E5
:104F30000D4B596B802252010A435A63D96A0222EF
:104F40001143D962DB6A13400093009B382301931D
:104F500002920023039301320492059301A90348AE
:104F6000FDF70EFC07B000BD001002400004005029
:104F700000B583B013008022520100920A000100A4
:104F80000448FEF744FC002801D103B000BD062010
:104F90004042FAE7A806002010B5FDF787FB10BDD8
:104FA00010B50C4B036082235B00436000238360D9
:104FB000C36003614361802292008261C361036226
:104FC000436283620733C362FEF710FB002800D000
:104FD000012010BD0030014010B50F4B0F4A1A6080
:104FE0000F4A1368591C1160002B01D0002010BD1E
:104FF0000948FEF7D5FD002801D00020F7E7064C50
:105000002000FFF793FF2000FFF7CAFF0028EED033
:1050100008204042EBE7C046A806002000300140CF
:10502000E004002070B586B0154BDA6A01252A43EA
:10503000DA62DB6A2B400093009B8023DB00019344
:10504000104B02930024039401A90F48FDF798FB2D
:1050500008230193029503940494A026F60501A960
:105060003000FDF78DFB0423019302950394049413
:1050700001A93000FDF784FBFFF7AEFF06B070BD5D
:1050800000100240000011100004005010B58021F3
:10509000C9000748FDF73AFCA024E40504212000DC
:1050A000FDF734FC08212000FDF730FC002010BD86
:1050B0000004005010B5A024E405002208212000BF
:1050C000FDF7AFFC0520FDF7F7FA012208212000CB
:1050D000FDF7A7FC0520FDF7EFFA002010BDF0B5A5
:1050E00085B007000E000F236B44FF221A7002AC3C
:1050F0000B23237000236370A370E3702371A0203F
:1051000000220421C005FDF78CFC05226946200021
:10511000FFF72EFF6B461B78022B09D00024A0203E
:1051200001220421C005FDF77CFC200005B0F0BD84
:105130006B461A791202DB78134314D0B34200D8BD
:105140001E0000240BE00E256D44012229000F20D3
:105150006844FFF70DFF2B783B550134E4B2A3B24E
:10516000B342F0D3DBE70024D9E70000F0B585B007
:1051700005000F0002AB0A221A7000225A709A70C2
:10518000DA701A71FDF792FA060012E06B465B784E
:10519000BB4220D202246442A02001220421C00587
:1051A000FDF73FFCFDF782FA801B0F281AD8002C70
:1051B0001ADAA02000220421C005FDF732FC0522E6
:1051C000694602A8FFF7D4FE6B461B78022BDDD0A0
:1051D00001246442E0E73A0005492800FFF7C8FED1
:1051E0000024D9E703246442200005B0F0BDC04686
:1051F000E404002010B58021C9000348FDF70AFC33
:1052000001384342584110BD0004005010B5FFF76B
:10521000F1FF002804D00020FFF708FD0028F6D099
:1052200010BD000010B588B0114B0193114B0293D3
:10523000114B0593114B0493114B0393114B07939F
:1052400001A8FFF715FC104C1049200001F081F86F
:105250000F4A0021200001F075F8002200210720EC
:10526000FDF738FA0720FDF765FA08B010BDC04613
:10527000255000088D5000086D510008DF500008CF
:10528000B5500008994F0008000700200A000006EA
:105290000D52000810B5FBF7CFF8FCF709FA002211
:1052A000064BFBF715FC0022054BFBF711FC002217
:1052B000044BFBF70BF9FCF74DFA10BD00801140D1
:1052C0000000304000408F4010B5FBF7B5F8FCF708
:1052D000EFF9074A074BFBF7FBFB0022064BFBF7F6
:1052E000F7FB0022054BFBF7F1F8FCF733FA10BD92
:1052F00008AC1C5A643BAF3F0000204000408F4088
:1053000084B010B5029003910492059319AB1A88EA
:1053100080235B01189902A8FEF7ACF9002803D19D
:1053200010BC08BC04B018470520F9E784B030B5BC
:1053300097B01A901B911C921D9332AB1D8830AB15
:105340001B7857246C442370802100224901214896
:10535000FDF767FB8021A02000224900C005FDF772
:1053600060FB01231393129448221EA9684601F0A2
:10537000FBF81A981B991C9A1D9BFFF7C1FF002888
:1053800023DD0524139531AB129348221EA96846EC
:1053900001F0EAF81A981B991C9A1D9BFFF7B0FFC1
:1053A000002814DC8021012249010A48FDF739FB5D
:1053B0008021A02001224900C005FDF732FB20001A
:1053C00017B030BC08BC04B018470024DAE7052445
:1053D000E8E7C0460004005084B000B597B01890CC
:1053E00019911A921B930123149365331393563B1F
:1053F000129348221CA9684601F0B6F8189819992A
:105400001A9A1B9BFFF792FF17B008BC04B018470D
:1054100084B010B5029003910492059319AB1A88D9
:1054200080235B01189902A8FEF708FB002803D12E
:1054300010BC08BC04B018470520F9E784B030B5AB
:1054400097B01A901B911C921D9332AB1D8830AB04
:105450001B7857246C442370802100224901214885
:10546000FDF7DFFA8021A02000224900C005FDF7EA
:10547000D8FA01231393129448221EA9684601F01A
:1054800073F81A981B991C9A1D9BFFF739FF002887
:1054900023DD05241395319B129348221EA96846EB
:1054A00001F062F81A981B991C9A1D9BFFF7B0FF38
:1054B000002814DC8021012249010A48FDF7B1FAD5
:1054C0008021A02001224900C005FDF7AAFA200092
:1054D00017B030BC08BC04B018470024DAE7052434
:1054E000E8E7C0460004005084B000B599B01A90B7
:1054F0001B911C921D93012314935E336B441393F1
:105500001123129348221EA9684601F02DF81A981B
:105510001B991C9A1D9BFFF791FF002803D019B01F
:1055200008BC04B01847012314936B3313935B3BFF
:10553000129348221EA9684601F016F81A981B9982
:105540001C9A1D9BFFF7F2FEE9E784B010B598B0F6
:105550001A901B911C921D935F246C4400232370AE
:105560000133149313948E33129348221EA9684674
:1055700000F0FAFF1A981B991C9A1D9BFFF75EFF1B
:1055800023786A2B22D148221EA9684600F0ECFF3E
:105590001A981B991C9A1D9BFFF71EFF002822D109
:1055A00048221EA9684600F0DFFF1A981B991C9A32
:1055B0001D9BFFF799FF002810D08021A020012219
:1055C000C900C005FDF72DFA032007E08021A020C7
:1055D0000122C900C005FDF724FA062018B010BC4E
:1055E00008BC04B018478021A0200122C900C005D2
:1055F000FDF717FA0120F1E784B010B598B01A90C2
:105600001B911C921D9331AB1B780222149217AC94
:105610001394129346321EA9684600F0A5FF1A980B
:105620001B991C9A1D9BFFF709FF217862781202D3
:1056300013B20B43309A1380002018B010BC08BC82
:1056400004B0184784B010B596B0189019911A920A
:105650001B9356246C4400232380A8331393129485
:1056600048221CA9684600F07FFF189819991A9AD9
:105670001B9BFFF7C1FF0023E05E16B010BC08BC07
:1056800004B0184784B000B593B0149015911692E9
:105690001793482218A9684600F066FF14981599D8
:1056A000169A179BFFF7CEFFFFF70EFE13B008BC4C
:1056B00004B0184784B010B596B0189019911A929A
:1056C0001B9356246C4400232380AA331393129413
:1056D00048221CA9684600F047FF189819991A9AA1
:1056E0001B9BFFF789FF0023E05E16B010BC08BCCF
:1056F00004B0184784B000B593B014901591169279
:105700001793482218A9684600F02EFF149815999F
:10571000169A179BFFF7CEFFFFF7D6FD13B008BC14
:1057200004B0184784B010B596B0189019911A9229
:105730001B9356246C4400232380AC3313931294A0
:1057400048221CA9684600F00FFF189819991A9A68
:105750001B9BFFF751FF0023E05E16B010BC08BC96
:1057600004B0184784B000B593B014901591169208
:105770001793482218A9684600F0F6FE1498159968
:10578000169A179BFFF7CEFFFFF79EFD13B008BCDC
:1057900004B0184784B010B596B0189019911A92B9
:1057A0001B9356246C440A2323809833139312943A
:1057B00048221CA9684600F0D7FE189819991A9A31
:1057C0001B9BFFF719FF0023E05E16B010BC08BC5E
:1057D00004B0184784B000B593B014901591169298
:1057E0001793482218A9684600F0BEFE1498159930
:1057F000169A179BFFF7CEFFFFF74CFD13B008BCBE
:1058000004B0184784B010B596B0189019911A9248
:105810001B9356246C4400232380A43313931294C7
:1058200048221CA9684600F09FFE189819991A9AF8
:105830001B9BFFF7E1FE0023E05E16B010BC08BC26
:1058400004B0184784B000B593B014901591169227
:105850001793482218A9684600F086FE14981599F7
:10586000169A179BFFF7CEFFFFF714FD13B008BC85
:1058700004B0184784B010B596B0189019911A92D8
:105880001B9356246C4400232380A6331393129455
:1058900048221CA9684600F067FE189819991A9AC0
:1058A0001B9BFFF7A9FE0023E05E16B010BC08BCEE
:1058B00004B0184784B000B593B0149015911692B7
:1058C0001793482218A9684600F04EFE14981599BF
:1058D000169A179BFFF7CEFFFFF7DCFC13B008BC4E
:1058E00004B01847F0B589B01422002103A800F0D5
:1058F00044FE234BDA6A01252A43DA62DA6A2A4037
:105900000192019AD96A02221143D962DB6A1A40D4
:105910000292029B1B4C00222100A020C005FDF733
:1059200080F880277F01184E002239003000FDF7F3
:1059300078F80394049500240594069403A9A02004
:10594000C005FCF71DFFC0231B0103930F4B0493FD
:10595000059403A93000FCF713FF03970495059401
:10596000069403A93000FCF70BFF0022002107205A
:10597000FCF7B0FE0720FCF7DDFE09B0F0BDC04625
:10598000001002400C07000000040050000011103D
:1059900010B50B480B4B036082235B004360002370
:1059A0008360C36003614361802292008261C361AE
:1059B0000362436283620733C362FDF717FE10BDC3
:1059C000080700200038004030B5002301E0013313
:1059D000DBB2022B08D85A00545A9A008218156874
:1059E000AC42F4DD1460F2E730BD000030B59DB08C
:1059F000382200210EA800F0C0FD1422002109A8C1
:105A000000F0BBFD24220021684600F0B6FD1349DA
:105A10000B68134A1A4080231B0113430B601023A9
:105A20000E930125159500241694A0231B021793AD
:105A300018940EA8FDF758F80F2309930A940B94B5
:105A40000C940D94002109A8FDF70CFB009503941C
:105A50006846FDF701FC1DB030BDC0460070004037
:105A6000FFE7FFFFF0B5C1B00023249325932693F1
:105A70002193229323931FAA1380538093801DAAFE
:105A8000138053809380FCF7F5FDFFF7AFFFFFF71E
:105A900029FFFFF77DFFFFF7A5F9854C21001031A5
:105AA0004822684600F060FD20686168A268E368EB
:105AB000FFF74BFDC0B2002800D0F1E07C4F3E0064
:105AC000103648223100684600F04EFD386879688B
:105AD000BA68FB68FFF7D6FD12904822310068468D
