:020000040800F2
:1000000000200020BD240008AD380008AF380008EB
:1000100000000000000000000000000000000000E0
:10002000000000000000000000000000B1380008DF
:100030000000000000000000B3380008B5380008D8
:100040000D2500080D2500080D2500080D250008C8
:100050000D250008BD3800080D250008CD38000822
:100060000D2500080D2500080D2500080D250008A8
:100070000D2500080D250008000000000D250008D2
:10008000000000000D250008000000000000000036
:100090000D250008000000000D2500080D250008B2
:1000A0000D2500080D2500080D2500080D25000868
:1000B0000D2500080D2500080D2500080D25000858
:1000C00010B5064C2378002B07D1054B002B02D02E
:1000D000044800E000BF0123237010BDE4010020AC
:1000E00000000000EC7D0008044B10B5002B03D08D
:1000F0000349044800E000BF10BDC04600000000F6
:10010000E8010020EC7D0008002243088B4274D3F4
:1001100003098B425FD3030A8B4244D3030B8B4208
:1001200028D3030C8B420DD3FF22090212BA030C11
:100130008B4202D31212090265D0030B8B4219D3F2
:1001400000E0090AC30B8B4201D3CB03C01A524112
:10015000830B8B4201D38B03C01A5241430B8B425A
:1001600001D34B03C01A5241030B8B4201D30B0343
:10017000C01A5241C30A8B4201D3CB02C01A52416A
:10018000830A8B4201D38B02C01A5241430A8B422D
:1001900001D34B02C01A5241030A8B4201D30B0216
:1001A000C01A5241CDD2C3098B4201D3CB01C01A30
:1001B000524183098B4201D38B01C01A524143093A
:1001C0008B4201D34B01C01A524103098B4201D328
:1001D0000B01C01A5241C3088B4201D3CB00C01A95
:1001E000524183088B4201D38B00C01A524143080D
:1001F0008B4201D34B00C01A5241411A00D2014632
:10020000524110467047FFE701B5002000F006F8A4
:1002100002BDC0460029F7D076E770477047C04658
:10022000002B11D1002A0FD1002900D1002802D0C3
:100230000021C943081C07B4024802A140180290DB
:1002400003BDC046D9FFFFFF03B4684601B502985D
:1002500000F030F8019B9E4602B00CBC7047C046CF
:10026000F0B5CE46474615042D0C2E0080B5070488
:10027000140C3F0C9946030C7E435D436743634374
:100280007F19340CE4199C46A54203D980235B02F4
:100290009846C4444B4643435143250C36046544B9
:1002A000360C2404A4195B19591820000CBC904684
:1002B0009946F0BDF0B54F464646D646C0B5040057
:1002C00082B00D00914698468B422FD82CD04146E3
:1002D000484601F09FFA29000600200001F09AFA32
:1002E000331A9C46203B9A4600D576E04B46524650
:1002F00093401F004B46624693401E00AF4228D8F1
:1003000025D05346A41BBD41002B00DA7BE0002220
:10031000002300920193012352469340019301234D
:1003200062469340009318E08242D0D90022002315
:10033000009201930A9B002B01D01C605D60009825
:10034000019902B01CBC90469946A246F0BDA3425A
:10035000D7D900220023009201936346002BE9D0F5
:10036000FB079846414672080A437B0866460EE042
:10037000AB4201D1A2420CD8A41A9D4101202419FC
:100380006D410021013E24184D41002E06D0AB42A4
:10039000EED9013E24196D41002EF8D10098019943
:1003A000534600196941002B23DB2B005246D340F2
:1003B0002A006446E2401C0053461500002B2DDB4A
:1003C00026005746BE40330026006746BE40320036
:1003D000801A994100900191ACE7624620239B1A54
:1003E0004A46DA406146130042468A4017001F43DE
:1003F00080E7624620239B1A2A0066469A40230023
:10040000F3401343D4E76246202300219B1A0022C5
:10041000009101920122DA40019280E72023624696
:1004200026009B1ADE402F00B0466646B74046467F
:100430003B003343C8E7C04641024200C30F490AAC
:10044000120E00207E2A0DD99D2A0CD8802000048F
:100450000143952A0ADC9620821AD1404842002B9B
:1004600000D108007047034A9818FBE7963A91407C
:10047000F4E7C046FFFFFF7F70B500283DD0C317EB
:10048000C5185D40C40F280001F0A6F99E22121A7B
:10049000962A07DCD2B2082833DD08388540680286
:1004A000400A23E0992A0BDD052329001B1AD940B5
:1004B00003001B339D402B005D1EAB4119430D0013
:1004C000052801DD431F9D402B000F490B406E079F
:1004D00009D00F263540042D05D004335D0102D527
:1004E0009F220B40121A9B01580AD2B24002D20539
:1004F000400AE4071043204370BD0024002200207E
:10050000F4E76802400AF1E7FFFFFFFBF0B54F4652
:100510004646D6460C000903C0B5490A470F5E009F
:1005200039431F03DB0F9C4665007B0A570F1F43AF
:100530006D0DE40F760DA146C000B846D200AB1B8E
:1005400064457BD0002B5FDD002E00D0A4E03E0090
:10055000164300D112E15E1E002E00D09EE1871AE4
:100560004346B84280410125C91A4042091A0B028C
:1005700000D431E149024E0A002E00D16EE1300074
:1005800001F02AF90300083B1F2B00DD61E1202266
:100590003900D21A9E40D1409F400E439D4200DD5B
:1005A00051E15D1B6B1C1F2B00DD7CE12021C91A72
:1005B0003D0030008F408840DD40791E8F41310082
:1005C00007222843D940002507433A40002A09D092
:1005D0000F233B40042B05D03B1DBB42BF417F4254
:1005E000C9191F000B0200D426E26A1CC64B550530
:1005F0006D0D9A4200D106E1C44AFF080A40530734
:1006000052023B43120B8EE0002B00D0B8E06B1C73
:100610005B055B0D012B00DC30E1871A4346B842D5
:10062000B641CB1A76429E1B330200D54CE13B000B
:100630003343A1D100220024002570E0002B00DC10
:10064000E5E0002E00D183E0AF4EB54260D08026B9
:1006500036043743B846382B00DC3EE143461343AB
:100660001F007A1E97413F18874280414042091877
:100670000B0200D4B0E0A44B01359D4200D1C3E091
:10068000A24A7B080A4001210F401F435108D307AB
:1006900007221F433A4099E79B4EB54238D0802647
:1006A00036043743B846382B00DDDCE01F2B00DC76
:1006B00030E11E004746203EF740BC46202B04D0C8
:1006C0004026F31A46469E403243170063467A1E80
:1006D00097411F43CCE0002B00D104E24346134373
:1006E00000D159E14B07C00818438023C9081B03F8
:1006F000194208D04546ED081D4204D14346D008B2
:10070000590708432900420FC9007F4D1143C0001B
:100710004B07CA087C49C00803438D4268D01203C6
:100720006D05120B6D0D002112031800130B0A0D3D
:1007300012051A43764B2D0513402B435B00E4074B
:100740005B08234319001CBC90469946A246F0BDA5
:100750003E00164312D05E1E002E00D000E1871826
:100760008742804141444042091801250B0233D59C
:10077000022585E764463300414610001D00C7E7A7
:10078000002D00D0DAE00C000443F3D05C1C00D153
:100790009FE15D4CA64200D12FE1DB43382B00DD09
:1007A00066E11F2B00DD83E120240500E41A0F0021
:1007B000DD40D940A0404346A7405B1A441EA041FB
:1007C00098462F433843171ABA4292414346524241
:1007D000991A64463500CAE607223A40002A00D03A
:1007E000F6E64B07CA084849FF083B438D4296D1BD
:1007F0001900114300D19EE1802109030A4312032D
:10080000120B414D8FE71500002200238BE7002BD0
:1008100000D0C7E06B1C5F057F0D012F00DCF1E00D
:10082000394DAB4200D1B9E085180A0085428941B3
:100830004244494251180722CF076D082F43490807
:100840003A401D00C2E607223049ED1A31403A40D5
:10085000BCE63E002838864000279FE6380000F0BE
:10086000BBFF20308EE6434613431F007A1E97419C
:10087000C71BB84280414042091A78E60E003B008F
:1008800006431343002D61D1002E00D0F4E0002B6D
:1008900000D11BE164463900100039E71A4FBB4212
:1008A0007AD03300FFE630001F3DE840202B03D014
:1008B0004021CB1A9E4037437B1E9F4107220743AE
:1008C0003A400021002589E7171A4346BA42B6414B
:1008D000591A76428E1B64464EE61F2B00DDADE0B2
:1008E00020264746F61AB740B9461700B246DF4001
:1008F0004E463E4337005646B240561EB24117435D
:100900004246DA408918AEE6FF070000FFFF7FFF8E
:10091000FFFF0F8020264746F61AB740B94617005A
:10092000B246DF404E463E4337005646B240561E62
:10093000B24117434246DA40891A99E77F4CA642F2
:100940005BD0802424045B42214327E7002E0CD196
:10095000002B00D1CBE0644639001000774DD7E67C
:10096000764FBB4218D0330075E6002B14D04B07EE
:10097000C00818438023C9081B03194207D0FC088C
:100980001C4204D17907D0080843E14621004C46B7
:10099000420FC9001143C000684DB9E61D00002296
:1009A0000023C0E6002D5BD10D00054300D1E2E637
:1009B0005D1C00D1B0E0614DAE421FD0DB43382B4F
:1009C00071DC1F2B00DD96E020250F00ED1AAF40F3
:1009D000B9460700AA46DF404D463D432F00554625
:1009E000A840D940451EA84188440743BF189742F4
:1009F00092415142414435003AE664463500414651
:100A0000100085E60B000343002D00D063E6002BA9
:100A1000F5D04346134300D17AE6871887428041D8
:100A200007224144404209183A400B0200D4D5E65F
:100A3000434B01351940C9E5380069E61E004746B9
:100A4000203EF740BC46202B04D04026F31A4646F1
:100A50009E403243170063467A1E97411F4302E6C9
:100A6000364DAE42CAD080252D045B422943A6E70D
:100A70000843411E8841A6E6002B00D148E6871AAC
:100A80004346B842B641CB1A76429E1B33024BD541
:100A9000171A4346BA429241591A5242891A0722FA
:100AA00064463A4092E501430F00791E8F419DE76D
:100AB0001C000F00203CE740202B03D04024E31A09
:100AC00099400843411E884138437CE600220024B7
:100AD00025E6171A4346BA429241591A5242891AD8
:100AE0006446350043E541461000144D10E680226F
:100AF0000024120380E61D000F00203DEF40BC469D
:100B0000202B03D04025EB1A994008430700634689
:100B1000781E87411F4369E7871897429B414144EC
:100B20005B42C9183500A3E53B003343CED0072212
:100B300031003A4052E600231A00F4E5FF070000B6
:100B4000FFFF7FFFF0B55746DE464E464546E0B50F
:100B5000834607000E03480085B092461C00360B02
:100B6000400DCD0F002800D19DE0954B984239D023
:100B70008023F6001B041E43924A7B0F33439946A1
:100B8000944603006344009300230026FF00029371
:100B900023031B0B98466300E40F52465B0D019440
:100BA00000D1B3E086498B4200D19EE04246D1009D
:100BB000802212040A435146490F11438B46814952
:100BC00052468C4600996344CB1A0021D200009310
:100BD0002B0063409A460F2E00D905E17A4BB600F0
:100BE0009B599F465B463343994600D0B8E00223A9
:100BF0000826002700900293CAE7CB463A000299E4
:100C00000195019B9A46022927D0032900D180E251
:100C1000012944D06D49009B8C4663441C00002C84
:100C200038DD530700D013E2D2085B46DB0109D55B
:100C30005946674B19408B468021C9008C46009B62
:100C400063441C00634B9C4207DC5B4664055F0702
:100C50005B0217431B0B620D02E000230027584A7A
:100C600000211B031C0B0B0D1B05234314055A4AC3
:100C7000380013401C4353466400DB0764081C43E0
:100C8000210005B03CBC90469946A246AB46F0BD5B
:100C90000122524201231B1B382B00DCADE1002254
:100CA00000230027DCE75B46334399465ED0002EE5
:100CB00000D18AE1300000F08FFD03000B3B1C2BBC
:100CC00000DD7BE11D22D31A5A460100DA400839C3
:100CD0008E4013005F46334399468F403F4B0026BA
:100CE0001B1A00930023029352E7414653460B43DD
:100CF0003B499B468C46009B634400935B46002B1C
:100D00003BD1022300221E43022161E743461343E5
:100D10009B4637D04346002B00D162E1404600F0AD
:100D20005BFD03000B3B1C2B00DD53E10200414641
:100D3000083A914088461D21CB1A5146D9400B00F4
:100D400041460B439B46534693401A00009B25495E
:100D50009C46604403008C4663440093002137E7BF
:100D60000323B14600900C26029311E70023009361
:100D700001330426002702930AE70323C3461E43D8
:100D8000032125E701331E430022012120E7002330
:100D90009A46802300271B03094A61E780234946BE
:100DA0001B03194200D1E2E05946194200D0DEE0AF
:100DB0000B431B0317001B0BA246014A50E7C0461A
:100DC000FF07000001FCFFFF847E0008FF03000016
:100DD000FFFFFFFEFE070000FFFF0F800DFCFFFF7F
:100DE00001F8FFFFF3030000D94500D9CBE000D1A3
:100DF000C6E03C0048460027009B013B00935B4651
:100E0000160E1B021E431302984633041B0C994610
:100E1000310C0191FFF7FEF94A4642430B04210CC5
:100E2000050019438A4207D98919013D8E4203D82A
:100E30008A4201D9851E8919881A0199FFF7EAF9B2
:100E400009048C464A46210464464243090C0300C7
:100E500021438A4204D98919013B8E4200D8F1E02E
:100E60002D041D43AB464346891A4246280C120402
:100E70001D0C5B46140C22001B041B0C5A430394EC
:100E80006B434443029568431B19150CEB189C42B5
:100E900003D980246402A44660441C0C15041B047E
:100EA0002D0C20185D19814277D373D00C1AA24AF9
:100EB0007D1BAF42BF419446009B7F426344E01BD1
:100EC0001C00864200D1DBE00199FFF7A3F94A46F6
:100ED00042430B04290C070019438A4207D9891998
:100EE000013F8E4203D88A4201D9871E8919881A88
:100EF0000199FFF78FF909044A46894629044D46AE
:100F00004243090C030029438A4207D98919013B4E
:100F10008E4203D88A4201D9831E89193F04891A57
:100F20003A00039F1A43380013041B0C58438146B0
:100F30000298150C6F43434345434846000C8446D2
:100F4000DB1963449F4203D98020400284466544F4
:100F500048461F0C00041B04000C7D191818A942F8
:100F600000D284E000D17FE001231A4357E68023BA
:100F70004A461B0313431B031B0BAA466F4A6FE62B
:100F8000BA4200D935E74B46DC0758087B081C43BA
:100F9000FF0734E70024AF4289D247444745A441C4
:100FA0005B466442A4196418013BA6421ED2A042CB
:100FB0006DD800D1B6E0241A9B4678E703005A4664
:100FC000283B9A400027914688E6584600F004FCEA
:100FD000203072E603005246283B9A409346002296
:100FE000B4E6504600F0F8FB20309AE6A642E2D183
:100FF000B845DCD9341A9B4659E71F2B65DC504CA9
:101000000099A4465C46614408008C40110082406F
:10101000D940501E82410C4314435A46DA40130013
:10102000620709D00F222240042A05D02200141D95
:101030009442894149425B181A0262D50122002379
:1010400000270DE68A4200D80AE7831E891907E7C0
:101050000F231340042B00D1E6E5171D9742924160
:1010600053429B44FA08E0E5002800D1D7E5711807
:10107000531EB14227D3A94215D358D01A0073E7A3
:10108000002B00DC04E6012300229B44CDE5022373
:101090004744474589415B429C46494289190C199E
:1010A000E344241A03E743465F0047459B41B846A3
:1010B0005B429E19023A8919A94200D054E7404583
:1010C00000D051E7ABE51A00F6E71F215F46494221
:1010D0000C1BE740202B07D01A49009B8C46634429
:1010E00018005B4683401A43501E82413A4307274B
:1010F0000023174009D00F210023114014000429B8
:1011000095D122005F075B021B0BD2081743002218
:10111000A6E5802359461B030B431B0317001B0B3B
:10112000064A9DE5BD42B2D89B460024BFE68045F5
:10113000B9D31A00C3E7C046FF030000FF07000051
:101140001E0400003E040000F0B55746DE464E4641
:101150004546E0B5834606000F03480087B0924637
:101160001D003F0B400DCC0F002800D16FE0DE4B7F
:10117000984238D08023FF001B041F43730F3B436A
:101180000193DA4B0027994600239B46F6008144E1
:101190002B0369001B0B52469846490DED0F0029A1
:1011A00000D185E0D04B994200D173E04346DA008C
:1011B00080231B0413435246CC48520F84461343EA
:1011C000524600206144D2008944210069400091C8
:1011D0008C46012149448A460F2F00D990E0C4492A
:1011E000BF00CF59BF465B463B43019300D06AE145
:1011F00002230827002681469B46C9E7320058464D
:10120000019B61460091022800D175E0032800D1BE
:10121000FEE1012800D02CE1002300270026002554
:101220003F032A0D3F0BB34812053A4302401B050A
:101230001343009A5B00D1075B080B433000190091
:1012400007B03CBC90469946A246AB46F0BD5B4613
:101250003B43019300D12FE1002F00D1A5E13800DD
:1012600000F0BAFA03000B3B1C2B00DD96E11D22B7
:10127000D31A5A460100DA405E4608398F401300FF
:101280008E403B4301939C4B00271B1A9946002339
:101290009B467DE7414653460B4393498C46E144C8
:1012A000002B00D01AE102220220174300228CE713
:1012B000134300D10DE14346002B00D181E14046AC
:1012C00000F08AFA02000B3A1C2A00DD72E10100EC
:1012D000434608398B4098461D239A1A5346D340FB
:1012E0001A004346134352468A404946081A824927
:1012F00089468144002068E77B4B002700268EE763
:10130000140C1204120C1100370C3604350C7943FE
:1013100028008C462E0060436044834656432100DB
:10132000300C80465846794340440291844506D9A2
:101330008846802149028C46E044414602913604A9
:10134000010C360C00048B4681191E0C1B041B0C6F
:101350000391190079438C46280075436544A846DB
:101360005843050C45447743A94203D980214902DB
:101370008C466744290C8C4639000004000C2D046F
:101380002D186144AB4405915946049101990F040D
:101390003F0C080C390051434243904602008C46F2
:1013A000090C8B4662437C4344445C44A04503D90A
:1013B0008021490288464244210C8846614609043E
:1013C000090C8C4639005943434370437E430F0C4C
:1013D000F6182404BE19644442448C46B34203D92F
:1013E00080235B0298464044029B61469846049BDA
:1013F000370443449B46AB45AD416B420D04059910
:101400002D0C8C467F196744FD18A8465D462D19A2
:10141000A542A44193466442A446C344DC448F429F
:10142000BF4198459B4193459241A445A4415B42ED
:101430007F421F43360C52426442BF192243BF18F9
:10144000624638184302D20D039913436A020A43D5
:10145000501E82416146ED0D2A434E023243D901AE
:1014600000D4B3E00126500832400243DE07324385
:101470005B08224C5444002C62DD510709D00F2038
:101480001040042805D0101D9042924152429B18F2
:101490000200D90104D580241948E40003405444D3
:1014A0001848844200DD27E75E075B02D2081F0B65
:1014B000630516435B0DB2E600239946013304270A
:1014C00000269B4664E60323019781460C279B4632
:1014D0005EE6012201201743002276E60323032063
:1014E0001F43434671E6C046FF07000001FCFFFFB3
:1014F000C47E0008FFFF0F800DFCFFFFFF0300000C
:10150000FFFFFFFEFE0700000023802700933F033C
:101510000026434B83E6019B3200A446584670E602
:10152000AC466EE6802701993F0339422DD03B42FD
:101530002BD11F433F033F0B00951600384B6EE63F
:1015400001252D1B382D00DD66E61F2D40DC3548BA
:101550001C005044160082408440EE40501E8241E0
:1015600034431443EB40620709D00F222240042A7F
:1015700005D02200141D9442804140421B181A02DB
:101580003ED501230027002649E68027019B3F0323
:101590001F433F033F0B0094214B40E603005A4694
:1015A000283B9A40002601926DE6584600F014F957
:1015B000203057E603005246283B9A401300002291
:1015C00093E6504600F008F920307BE6CA4650E723
:1015D0001F201E004042041BE640202D03D0124C69
:1015E0005444A3401A43501E824132430726002729
:1015F000164009D00F200023104014000428B9D150
:1016000022005E075B021F0BD2081643002306E68A
:1016100080273F031F433F033F0B1600004BFEE5AF
:10162000FF0700001E0400003E0400004100090EF8
:101630004B1C70B5DBB24602750AC40F012B14DDDA
:10164000E0239B006D07360BCB1800210A0D280004
:1016500012051C4D32435B052A405B0813435B00B7
:10166000E4075B082343190070BD002914D1002D45
:101670001ED0280000F0B0F80A281CDC0B232A003A
:101680001B1ADA40030015339D400F4B12031B1A3F
:101690005B05160B5B0DD8E7002D06D0320B8026BC
:1016A00036036D071643094BCFE7084B0026CCE7FE
:1016B00000230026C9E703002A000B3B9A400025BF
:1016C000E3E7C046FFFF0F8089030000FF0700002B
:1016D000F0B54C00640D0B03621C5B0A460F52050B
:1016E000C90F1E43C500520D012A29DD374BE718EB
:1016F000FE2F1CDC002F3BDD8001431E984107229A
:10170000F3006D0F03432B431A40002A04D00F222D
:101710001A40042A00D004338022D2041A4024D074
:101720000137FAB2FF2F02D09B01580A01E0FF22D5
:1017300000204002D205400AC90710430843F0BD0B
:101740003543002C04D1002D0AD100220020F0E7FF
:10175000002DECD08020C0033043FF22E9E70024B5
:1017600000235B02580AE2B2E3E7DB083C00F8E73B
:101770003B001733F3DB80231B0433431E26F61B89
:101780001F2E14DD02225242D71B1A00FA40170006
:10179000202E04D00E4A94466444A3401D432B00DF
:1017A0005D1EAB4107223B431A400027ADE7094AC3
:1017B0002800A218954093406C1EA541F0400722D6
:1017C0002B4303431A4000279FE7C04680FCFFFFDE
:1017D000A2FCFFFF82FCFFFF1C2101231B04984297
:1017E00001D3000C10391B0A984201D3000A0839B2
:1017F0001B09984201D30009043902A2105C401869
:101800007047C0460403020201010101000000000C
:101810000000000010B5002903D1FFF7DDFF2030E4
:1018200002E0081CFFF7D8FF10BDC0460023C25CD1
:101830000133002AFBD1581E7047000002B47146E4
:1018400049084900095C49008E4402BC7047C04603
:1018500003460B437FD4002243088B4274D3030911
:101860008B425FD3030A8B4244D3030B8B4228D3B2
:10187000030C8B420DD3FF22090212BA030C8B42D8
:1018800002D31212090265D0030B8B4219D300E078
:10189000090AC30B8B4201D3CB03C01A5241830BFD
:1018A0008B4201D38B03C01A5241430B8B4201D3AD
:1018B0004B03C01A5241030B8B4201D30B03C01AD6
:1018C0005241C30A8B4201D3CB02C01A5241830A50
:1018D0008B4201D38B02C01A5241430A8B4201D37F
:1018E0004B02C01A5241030A8B4201D30B02C01AA9
:1018F0005241CDD2C3098B4201D3CB01C01A524110
:1019000083098B4201D38B01C01A524143098B4298
:1019100001D34B01C01A524103098B4201D30B0181
:10192000C01A5241C3088B4201D3CB00C01A5241A6
:1019300083088B4201D38B00C01A524143088B426B
:1019400001D34B00C01A5241411A00D20146524104
:10195000104670475DE0CA0F00D04942031000D323
:101960004042534000229C4603098B422DD3030A78
:101970008B4212D3FC22890112BA030A8B420CD388
:10198000890192118B4208D3890192118B4204D3B1
:1019900089013AD0921100E08909C3098B4201D331
:1019A000CB01C01A524183098B4201D38B01C01A6B
:1019B000524143098B4201D34B01C01A52410309E2
:1019C0008B4201D30B01C01A5241C3088B4201D391
:1019D000CB00C01A524183088B4201D38B00C01A3E
:1019E0005241D9D243088B4201D34B00C01A524115
:1019F000411A00D20146634652415B10104601D3A2
:101A00004042002B00D54942704763465B1000D32B
:101A1000404201B50020FEF701FC02BD0029F8D0CC
:101A200016E770478446101C62468C46191C6346B4
:101A300000E0C0461FB500F0D3F8002801D4002113
:101A4000C8421FBD10B500F02BF84042013010BD58
:101A500010B500F0C5F8002801DB002010BD012002
:101A600010BDC04610B500F0BBF8002801DD002015
:101A700010BD012010BDC04610B500F04DF8002883
:101A800001DC002010BD012010BDC04610B500F0E3
:101A900043F8002801DA002010BD012010BDC04627
:101AA000F0B54F464646D6468446C0B58046194EE8
:101AB00018030F034D00000B5C0082463F0B6D0DB9
:101AC000C90F9146640DDB0F0120B5420AD0B44224
:101AD00003D0A54201D157450CD01CBC9046994675
:101AE000A246F0BD66463E43F7D1AC42F5D154461E
:101AF0001443F2D10120C845EFD1994207D0002DFF
:101B0000EBD163461F433800471EB841E5E700208C
:101B1000E3E7C046FF070000F0B54F464646D6460D
:101B20004D00C0B50E03C90F8A462C491F035C0047
:101B30008046360B6D0D91463F0B640DDB0F8D42D9
:101B40001ED08C4216D0002D1ED130438446002C6E
:101B500001D13A4323D06246002A1AD09A4529D0AF
:101B6000514602200139084001381CBC9046994674
:101B7000A246F0BD39001143E5D002204042F4E70F
:101B80003043FAD1AC420FD0002C0FD13A43E7D00A
:101B90000CE00122013B934318000130E5E7634666
:101BA0000020002BE1D0DBE73A43E6D19A45D7D1BC
:101BB000A542D5DCA54205DBBE42D1D808D0002025
:101BC000BE42D2D250460123013898430130CCE7BF
:101BD000C845C5D80020C845F4D3C6E7FF070000B4
:101BE000F0B54F464646D6464D00C0B50E03C90F68
:101BF0008A462E491F035C008046360B6D0D9146C8
:101C00003F0B640DDB0F8D4218D08C4211D0002D9C
:101C100018D130438446002C1ED13A431CD1634670
:101C20000020002B30D051460220013908400138F5
:101C30002AE039001143EAD0022025E03043FBD1ED
:101C4000AC4226D0002C26D13A4324D15146022062
:101C500001390840013817E06246002A0FD09A4542
:101C6000E1D1A54205DBBE42DDD819D00020BE423D
:101C70000AD25046012301389843013004E0012282
:101C8000013B9343180001301CBC90469946A24684
:101C9000F0BD3A43D0D19A45C5D1A542C3DCE0E7B7
:101CA000C845C0D80020C845E3D3EDE7FF070000D2
:101CB000F8B557464E464546DE460C000903E0B5EA
:101CC000490A460F5F0031431E03DB0F760A9B462D
:101CD000530F3343C84E6500C000E40FD2006D0DB2
:101CE000A24681467F0D9C469046B74200D1B9E09E
:101CF0005B46012673409B46EE1BA34500D183E063
:101D0000002E63DD002F00D0B1E06346134300D105
:101D100023E1731E002B00D0BAE1861A6346B0425D
:101D200080410125C91A4042091A0B0200D447E13B
:101D300049024B0A98464346002B00D189E14046B0
:101D4000FFF74AFD0300083B1F2B00DD7CE120224A
:101D50003000D21A4146D040994002009E400A43CA
:101D60009D4200DD6AE15D1B6B1C1F2B00DD94E1D1
:101D7000202110003500C91A8E40DA408840DD402D
:101D8000711E8E4111000722284300250643324070
:101D9000002A09D00F233340042B05D0331DB34252
:101DA000B641764289191E000B0200D43DE26A1C3E
:101DB000914B55056D0D9A4200D119E18F4AF608F5
:101DC0000A40570752023743120B9BE0002E00D007
:101DD000C5E06E1C7605760D012E00DC48E16746F5
:101DE000861ACB1BB042BF417F42B8461F00434614
:101DF000FF1A3B00B8461B0200D55FE137439AD17A
:101E000000220024002579E0002E00DCFAE0002FFB
:101E100000D18DE0784B9D4267D0802367461B043C
:101E20001F43BC46382E00DC52E1634613435A1E62
:101E300093411E1886428041404209180B0200D48B
:101E4000BEE06D4B01359D4200D1D2E06B4A730874
:101E50000A4001210E401E435108D30707221E43AA
:101E6000324095E71E00164300D045E740E7624B3D
:101E70009D423AD0802367461B041F43BC46382E40
:101E800000DDEBE01F2E00DC3AE133006746203B2B
:101E9000DF403B00202E05D04027BF1B6646BE40DA
:101EA000324390464646721E96413343DAE0002B99
:101EB00000D114E26346134300D168E180234E074A
:101EC000C008C9081B030643194208D06046C00871
:101ED000184204D163460100D2085E071643F3009E
:101EE0009946C900720F444D11434B46DE08424BE0
:101EF0004F073743CA089D4200D16EE012036D05BB
:101F0000120B6D0D00211203130B0A0D12051A435B
:101F10003B4B2D0513402B435B00E4075B08234339
:101F2000380019003CBC90469946A246AB46F8BD25
:101F30006346134311D0731E002B00D007E18618AF
:101F40008642804161444042091801250B0237D581
:101F500002257BE73E00614691463500C5E75C46B9
:101F6000002D00D0E1E00B000343F3D0731C00D13F
:101F7000ACE1214B9F4200D13AE1F343382B00DD25
:101F80006FE11F2B00DD8CE120250E00ED1AAE4025
:101F9000B0460600AA46DE40454635432E0055466B
:101FA000D940A8406346451EA8415B1A9C46304371
:101FB000161AB242924163465242991A3D00B4E663
:101FC00007223240002A00D0E4E60B4BF6084F0708
:101FD0003743CA089D4200D090E73B00134300D12D
:101FE000A6E180231B031A431203120B024D89E75B
:101FF00015000022002785E7FF070000FFFF7FFF95
:10200000FFFF0F80002E00D0C7E06B1C5E05760D31
:10201000012E00DCF0E0C84DAB4200D1B9E08518DC
:102020000A00854289416244494251180722CE077D
:102030006D082E43490832401D00A9E6BF49ED1A3C
:10204000114007223240A3E63200283882400026A1
:1020500086E63000FFF7C0FB203073E6634613438B
:102060005A1E9341C61AB04280414042091A5CE6AA
:102070000E00674606431743002D5ED1002E00D0A8
:10208000F3E0002F00D11EE15C46614691462CE74B
:10209000A94FBE427BD01E00F1E610001F3DE84074
:1020A000202B03D04021CB1A9A401643731E9E4129
:1020B0000722064332400021002583E7161A6346B3
:1020C000B2428041591A40420B1A98465C4632E6A9
:1020D0001F2E00DDABE02027BB1B9A466346574608
:1020E000BB40994613004F46F3401F433B00574601
:1020F000BA40571EBA4113436246F240891898E627
:102100002027BB1B9A4663465746BB40994613009F
:102110004F46F3401F433B005746BA40571EBA4153
:1021200013436246F240891A9CE7834B9F425FD07B
:1021300080252D047342294320E7002E0CD1002F67
:1021400000D1D0E05C46614691467B4DCDE67A4FAA
:10215000BE421CD01E0065E6002F18D0C0084E07F6
:1021600006438020C9080003014208D06346DC080A
:10217000044204D12100DA46D2085E071643F30078
:10218000994601245346C900720F11431C406A4D01
:10219000ABE61D0000220027B4E6002D59D10B004C
:1021A000034300D1D6E6731C00D1B2E0624B9F42DC
:1021B0001ED0F343382B6FDC1F2B00DD97E020256A
:1021C0000E00ED1AAE40B0460600AA46DE40454677
:1021D00035432E005546A840D940451EA8418C44A1
:1021E0000643B61896429241514261443D0025E6AD
:1021F0003D006146914678E60B000343002D00D078
:1022000055E6002BF5D06346134300D16DE68618E2
:102210008642804161444042091800220B0200D4EA
:10222000D0E6464B01351940B2E5B1465DE63300D4
:102230006746203BDF403B00202E05D04027BF1BD8
:102240006646BE40324390464646721E9641334330
:10225000EFE5394B9F42CBD080252D0473422943B3
:10226000A8E70843411E8841A2E6002F00D13CE6C2
:102270006346861ACF1AB0429B415B42FB1A9846CE
:102280001B024ED5161A6346B2429241591A524267
:10229000891A5C4600227BE501430E00711E8E41C7
:1022A0009FE71D000E00203DEE40B046202B04D0DD
:1022B0004025EB1A99400843814648464346411E53
:1022C0008841184374E60022002417E6161A634674
:1022D000B2429241591A5242891A3D0025E561469F
:1022E0009146154D01E680220024120379E61D0077
:1022F0000E00203DEE40B046202B04D04025EB1AC6
:102300009940084381464E464346711E8E411E4306
:1023100067E7861896429B4161445B42C9183D00BD
:102320008CE547463743CED007224146324049E646
:1023300000273A00E6E5C046FF070000FFFF7FFFE9
:1023400070B50C4E0D031C0349005B002D0B490DAD
:10235000240B5B0DB14208D0064900208B4203D10B
:1023600014432000441EA04170BD05430120002DF0
:10237000FAD1F1E7FF07000030B5144D0A034B0016
:10238000120B5B0DC90F0024AB4211DD104CA342B0
:1023900010DC8024640322430E4CE41A1F2C0CDD55
:1023A0000D48C31ADA4013005C42002900D11C001A
:1023B000200030BD094BCC18FAE7094DE040AC468F
:1023C00063449A4013000343EEE7C046FE03000057
:1023D0001D0400003304000013040000FFFFFF7F12
:1023E000EDFBFFFF70B500282DD0C317C5185D4069
:1023F000C40F2800FFF7F0F9154B1B1A5B055B0DA6
:102400000A2815DD0B38854000222D032D0B0021F5
:1024100010002D030A0D2D0B12052A430D4D1B052F
:102420002A4013435B00E4075B082343190070BD97
:1024300002002900153291400A000B21081AC540FC
:102440002D032D0BE3E70024002300250022DEE707
:102450001E040000FFFF0F8010B5041E25D0FFF7FB
:10246000BBF9144B1B1A5B055B0D0A2812DD0B38F8
:10247000844000222403240B0021100024030A0DB1
:10248000240B120522430C4C1B05224013435B0016
:10249000590810BD02002100153291400A000B219D
:1024A000081AC4402403240BE6E70023002400227A
:1024B000E2E7C0461E040000FFFF0F800D4885467E
:1024C000002103E00C4B5B58435004310B480C4B8C
:1024D00042189A42F6D30B4A02E0002313600432FA
:1024E000094B9A42F9D301F06DFB03F0C1FE00F0F5
:1024F000FDFDFEE7002000204881000800000020CC
:10250000E4010020E401002000080020FEE70000B4
:1025100010B503000B4A1268002A08D0094A106857
:10252000C3186A46934206D8064A136010BD054A8E
:1025300005491160F2E703F095FE0C2303600120CA
:102540004042F3E7000200200008002010B50121FE
:10255000002001F00FFA002001F0E2F9002001F064
:1025600083FA10BD10B50400164B1B78002B04D164
:10257000154B1B78002B06D110BD01F08BF8114BC9
:1025800000221A70F4E7322001F084FB002001F0F1
:1025900041FA0E4B1B785A4253419842F6D03220F2
:1025A00001F078FB002001F0DDF9094B1B68002BDE
:1025B00003D1054B00221A70DEE7200000F08EFEEA
:1025C000F7E7C046010000200802002000000020BC
:1025D0000C03002010B58CB0384B1A680A929A8808
:1025E0000AAB9A80FFF7B2FF002001F013FAC0B2E5
:1025F000334B18700021334803F084FC19246C44D9
:1026000016216944200003F075FB03F099FB642058
:1026100001F040FB2378302B05D92B4B01225A7057
:102620000AAB01325A7106220AA908A803F044FE37
:1026300008AA0621002003F011FB03F07CF9224BCD
:102640005B78012B15D01A236B4407AA1E2169441D
:10265000012003F094F807AB19881E236B441888F7
:102660001A4B00930723002203F0A2FA00280DD092
:10267000FEE719336B44019307AB00931E236B44B1
:1026800007220021012003F043F8E4E7012403942A
:102690000F4B02930021019110230093093B0A0084
:1026A000200003F002F900F07DFD00F051FE04214E
:1026B000200003F000FB0CB010BDC046087E0008EF
:1026C00000000020F137000808020020047F000805
:1026D00040E2010010B5054B186059609A6018007F
:1026E000FFF740FF03F0F8FC10BDC04614030020C4
:1026F000014B01221A7070470802002070B586B0A5
:10270000154BDA6A01252A43DA62DB6A2B40009313
:10271000009B0195114B029300240394A026F6051B
:1027200001A9300001F01AFB80235B0001930295A0
:102730000394049401A9300001F010FB02230193DB
:1027400002950394049401A9300001F007FB01F005
:1027500013FA06B070BDC046001002400000111010
:1027600010B5A024E4050121200001F0BDFB0221E9
:10277000200001F0B9FB80214900200001F0B4FBEA
:10278000002010BD70B580256D00A024E405002256
:102790002900200001F033FC052001F07BFA012222
:1027A0002900200001F02BFC052001F073FA002025
:1027B00070BDF0B585B007000E000F236B44FF22FB
:1027C0001A7002AC0B23237000236370A370E370B4
:1027D0002371A02000220221C00501F010FC052277
:1027E0006946200001F094F96B461B78022B09D052
:1027F0000024A02001220221C00501F000FC2000DD
:1028000005B0F0BD6B461A791202DB78134314D081
:10281000B34200D81E0000240BE00E256D440122B7
:1028200029000F20684401F073F92B783B550134DF
:10283000E4B2A3B2B342F0D3DBE70024D9E700004F
:10284000F0B585B005000F0002AB0A221A70002215
:102850005A709A70DA701A7101F016FA060012E0D6
:102860006B465B78BB4220D202246442A020012246
:102870000221C00501F0C3FB01F006FA801B0F28FE
:102880001AD8002C1ADAA02000220221C00501F07B
:10289000B6FB0522694602A801F03AF96B461B789F
:1028A000022BDDD001246442E0E73A00054928000C
:1028B00001F02EF90024D9E703246442200005B07A
:1028C000F0BDC0460C02002010B5A0200121C005BB
:1028D00001F08EFB01384342584110BD10B5FFF79F
:1028E000F3FF002804D0002003F018FC0028F6D0E5
:1028F00010BD000010B588B0114B0193114B02932D
:10290000114B0593114B0493114B0393114B0793F8
:1029100001A803F025FBC0210F4CC904200000F0E2
:102920009CFF0E4A0021200000F090FF00220021B1
:10293000052001F0BDF9052001F0EAF908B010BD4D
:10294000FD2600086127000841280008B327000879
:1029500085270008393B000888060020DD2800088C
:1029600010B50C480C4B0360E1235B02436000236D
:102970008360C36003610C2242618361C3610362AF
:10298000436202F08FFE002800D110BD00F008FC69
:10299000FBE7C046080600200038014010B5FDF7EF
:1029A0006BFDFEF743FE0022064BFEF7CDFB020057
:1029B0000B00FDF7ABFD0022034BFEF7C3F8FEF75B
:1029C00087FE10BD0080114000408F4084B010B5DC
:1029D000029003910492059319AB1A8880235B013E
:1029E000189902A802F034F9002803D110BC08BCE1
:1029F00004B018470520F9E784B030B597B01A90B5
:102A00001B911C921D9332AB1D8830AB1B78572451
:102A10006C442370A02000220221C00501F0EFFACF
:102A200001231393129448221EA9684603F044FC24
:102A30001A981B991C9A1D9BFFF7C8FF00281CDDE4
:102A40000524139531AB129348221EA9684603F062
:102A500033FC1A981B991C9A1D9BFFF7B7FF00289F
:102A60000DDCA02001220221C00501F0C8FA2000DF
:102A700017B030BC08BC04B018470024E1E70524B7
:102A8000EFE784B010B5029003910492059319AB5F
:102A90001A8880235B01189902A802F0BDFA002869
:102AA00003D110BC08BC04B018470520F9E784B076
:102AB00030B5B7B03A903B913C923D9352AB1D88F4
:102AC00050AB1B78D7246C442370A0200022022135
:102AD000C00501F094FA01231393129448223EA9F1
:102AE000684603F0E9FB3A983B993C9A3D9BFFF717
:102AF0006DFF002821DD052414A8802253A903F0CE
:102B0000DBFB1395519B129348223EA9684603F0C4
:102B1000D3FB3A983B993C9A3D9BFFF7B2FF0028C4
:102B20000DDCA02001220221C00501F068FA20007E
:102B300037B030BC08BC04B018470024DCE70524DB
:102B4000EFE7000084B000B5B9B03A903B913C92F9
:102B50003D9315A88022194903F0AEFB012314937D
:102B6000DE336B4413931023129348223EA9684628
:102B700003F0A2FB3A983B993C9A3D9BFFF797FFE5
:102B8000002803D039B008BC04B0184715A880222B
:102B90000A4903F091FB01231493053313930A337D
:102BA000129348223EA9684603F086FB3A983B9967
:102BB0003C9A3D9BFFF720FFE4E7C0460806002053
:102BC00084B000B5B9B03A903B913C923D9315A8C2
:102BD0008022184903F070FB01231493DE336B4409
:102BE00013931023129348223EA9684603F064FB16
:102BF0003A983B993C9A3D9BFFF759FF002803D038
:102C000039B008BC04B0184715A88022094903F060
:102C100053FB0123149313930F33129348223EA9BD
:102C2000684603F049FB3A983B993C9A3D9BFFF775
:102C3000E3FEE5E70806002084B000B5B9B03A909D
:102C40003B913C923D9315A88022194903F034FB37
:102C500001231493DE336B44139311231293482200
:102C60003EA9684603F028FB3A983B993C9A3D9B65
:102C7000FFF71DFF002803D039B008BC04B0184787
:102C800015A880220A4903F017FB0123149305338A
:102C900013930B33129348223EA9684603F00CFBB2
:102CA0003A983B993C9A3D9BFFF7A6FEE4E7C04665
:102CB0000806002084B000B5B9B03A903B913C9230
:102CC0003D9315A88022194903F0F6FA01231493C5
:102CD000DE336B4413931123129348223EA96846B6
:102CE00003F0EAFA3A983B993C9A3D9BFFF7DFFEE6
:102CF000002803D039B008BC04B0184715A88022BA
:102D00000A4903F0D9FA01231493053313930B33C3
:102D1000129348223EA9684603F0CEFA3A983B99AE
:102D20003C9A3D9BFFF768FEE4E7C046080600209A
:102D300084B010B5B8B03A903B913C923D93FFF708
:102D40000FFEDF246C440023237015A880222C4939
:102D500003F0B2FA0123149313948E331293482292
:102D60003EA9684603F0A8FA3A983B993C9A3D9BE5
:102D7000FFF79DFE23786A2B05D0062038B010BCE3
:102D800008BC04B0184748223EA9684603F094FAEC
:102D90003A983B993C9A3D9BFFF7D4FE002801D01E
:102DA0000120EBE748223EA9684603F085FA3A98ED
:102DB0003B993C9A3D9BFFF703FF002801D002207E
:102DC000DCE748223EA9684603F076FA3A983B9938
:102DD0003C9A3D9BFFF730FF002801D00320CDE750
:102DE00048223EA9684603F067FA3A983B993C9A14
:102DF0003D9BFFF75FFF0028C0D00420BEE7C04620
:102E00000806002084B030B5B9B03C903D913E92A8
:102E10003F9353AB1D7815A880220F4903F04CFA5D
:102E20000223149337AC13941295482240A96846A4
:102E300003F042FA3C983D993E9A3F9BFFF737FEDC
:102E400021786278120213B20B43529A138039B080
:102E500030BC08BC04B018470806002084B010B588
:102E600096B0189019911A921B9356246C4405231E
:102E7000238023331393129448221CA9684603F03D
:102E80001BFA189819991A9A1B9BFFF7BBFF00238E
:102E9000E05E16B010BC08BC04B0184784B000B5A2
:102EA00093B01490159116921793482218A968466A
:102EB00003F002FA14981599169A179BFFF7CEFFA4
:102EC000FFF76CFD13B008BC04B0184784B010B510
:102ED00096B0189019911A921B9356246C440023B3
:102EE000238024331393129448221CA9684603F0CC
:102EF000E3F9189819991A9A1B9BFFF783FF00238F
:102F0000E05E16B010BC08BC04B0184784B000B531
:102F100093B01490159116921793482218A96846F9
:102F200003F0CAF914981599169A179BFFF7CEFF6C
:102F3000FFF734FD13B008BC04B0184784B010B5D7
:102F400096B0189019911A921B9356246C44002342
:102F5000238026331393129448221CA9684603F059
:102F6000ABF9189819991A9A1B9BFFF74BFF00238E
:102F7000E05E16B010BC08BC04B0184784B000B5C1
:102F800093B01490159116921793482218A9684689
:102F900003F092F914981599169A179BFFF7CEFF34
:102FA00013B008BC04B01847F0B58BB01422002150
:102FB00005A803F08AF92B4BD96A04221143D96280
:102FC000D96A0A400192019AD96A80221143D962D2
:102FD000D96A0A400292029ADA6A01252A43DA6221
:102FE000DA6A2A400392039AD96A02221143D9620B
:102FF000DB6A1A400492049B91277F00A026F60505
:1030000000223900300000F0FAFF80239B01059375
:10301000154B06930024079405A9144800F09EFE62
:103020000595134B0693079405A9300000F096FE12
:10303000059706950794089405A9300000F08EFEC8
:1030400000220021052000F033FE052000F060FE84
:1030500000220021072000F02BFE072000F058FE80
:103060000BB0F0BD0010024000002110000800501D
:103070000000111010B59CB0382200210EA803F0FA
:1030800024F91422002109A803F01FF924220021A9
:10309000684603F01AF913490B68134A1A40802353
:1030A0001B0113430B6010230E930F3B1593002459
:1030B0001694A0231B02179318940EA801F002F88F
:1030C0000F2309930A940B940C940D94002109A8E2
:1030D00001F0B6FA022300930494684601F0AAFBBB
:1030E0001CB010BD00700040FFE7FFFFF0B593B0CB
:1030F00000F0AEFDFFF7BEFFFFF756FFFFF76AFADD
:10310000254C210010314822684603F0D5F820688C
:103110006168A268E368FFF70BFE002834DC1F4CEF
:103120002500103548222900684603F0C5F82068BC
:103130006168A268E368FFF7B1FE061C4822290017
:10314000684603F0B9F820686168A268E368FFF791
:10315000DDFE071C48222900684603F0ADF8206810
:103160006168A268E368FFF709FFFDF765F90400ED
:10317000381CFDF761F90500301CFDF75DF92200F0
:103180002900FFF7A7FACAE7A02001222021C005E5
:1031900000F035FFC3E7C0469007002090060020EE
:1031A0007047000000B58BB006A91B230B70AA3333
:1031B0004B7010338B70303BCB70A33B0B710022F4
:1031C0004A71B4328A711A3ACA7147320A72D03AD5
:1031D0004A7229328A729532CA724F3A0A73123A87
:1031E0004A73383A8A73CB73394B00930723353AC5
:1031F000022002F0BEFB002864D106AA1B23137034
:10320000AA33537010339370303BD370A33B1371C8
:1032100000235371FC2191716D39D17152311172BA
:10322000D0395172393191728531D1722F39117380
:10323000283951733A399173A431D17324490888DC
:103240002449059104931021039102930193009165
:1032500001330E3902F0C8FB002836D106AA1B2123
:103260001170C523537010339370303BD370A33B60
:10327000137100235371363090717630D071353030
:103280001072D03850723A3090728430D0724F3809
:1032900010735173113991732A31D1730C49088815
:1032A0000D4905910493202103911C39029101934A
:1032B00012330093063B023902F096FB002802D03D
:1032C000472000E047200BB000BD4720FBE7C04689
:1032D00006070020FC0600200807002000B587B084
:1032E000036803AA13701912517019149170012107
:1032F000182B00DC002103AAD17043681371191246
:103300005171191491710121182B00DC002103AABD
:10331000D1718368137219125172191491720122BA
:10332000182B00DC002203ABDA72074A1088074A28
:10333000118800930C23002202F03AFC002801D1EE
:1033400007B000BD4720FBE7060700200807002064
:1033500030B593B00EA91B230B70AA334B701033FA
:103360008B70303BCB70A33B0B7100234B71D03380
:103370008B714E3BCB71E2220A72D13A4A726632AD
:103380008A726D32CA72A43A0A73263A4A738B73F0
:10339000403BCB73954B00930A23193A022002F06D
:1033A000E8FA002800D013E10EAA1B231370AA33F9
:1033B000537010339370303BD3700221117100238E
:1033C0005371E33090713A38D07139301072D1387E
:1033D0005072663090726D30D072C43810733530D0
:1033E0005073273890737530D07380480088804CB4
:1033F00005940493102403940C3C029401930091CF
:10340000023302F0F1FA002800D0E4E00BAA0E2308
:103410001370F1335370774B5380002414713123B0
:103420006B4400211970597036236B44724919801E
:103430006E4908886E4909882A256D4408950794C5
:103440001025069505940F3D0495039402920722DA
:1034500001920092063A02F029FB002800D0BCE05D
:103460000EAA1B231370AA33537010339370303B92
:10347000D37002211171002353710B309071793098
:10348000D0715E301072D13850727A3090725930EB
:10349000D0726438107344305073A4389073AD30D8
:1034A000D07352480088554C05940493102403941B
:1034B0000C3C029401930091033302F095FA00282A
:1034C00000D08CE00BAA0F231370EC3353709E23B3
:1034D0009B0153800024147131236B440021197027
:1034E000597036236B444449198040490888434940
:1034F000098829356D44089507941025069505948B
:103500000F3D049503940292072201920092063A1D
:1035100002F0CCFA002864D10EAA1B231370C53028
:103520005070BA339370303BD37002211171002375
:103530005371733494712D34D47142341472D13C6C
:1035400054727B3494725834D472843C1473553C56
:1035500054739073C438D07324480088284C059461
:103560000493102403940C3C0294019300910233C1
:1035700002F03AFA002836D10BAA06231370F93369
:1035800053709C239B0153800024147131236B449E
:1035900000211970597036236B441749198013495B
:1035A00008881749098829356D440895079410251E
:1035B000069505940F3D049503940292072201920B
:1035C0000092063A02F072FA002802D0472000E08A
:1035D000472013B030BD4720FBE74720F9E74720DD
:1035E000F7E74720F5E74720F3E7C046FE0600204F
:1035F000040700202F2700000429000002070020F4
:103600000007002000B585B00E236B441880074AE0
:103610001088074A118800930223002202F0C8FA9A
:10362000002801D105B000BD4720FBE7FE060020C1
:103630000407002000B585B00390084B1888084B9C
:10364000198803AB00930323002202F0B1FA00288B
:1036500001D105B000BD4720FBE7C046FE060020B3
:103660000207002000B585B00E236B441880074A7E
:103670001088074A118800930223002202F098FA6A
:10368000002801D105B000BD4720FBE7FE06002061
:103690000007002010B58AB008AC0D4B220003CB08
:1036A00003C20021002002F0A0FB80228021002321
:1036B00006930593049303930294082001900093CA
:1036C00052010901002002F090F80AB010BDC04676
:1036D000107E0008044B01221A609980052300E047
:1036E000013B002BFCD170470C030020034B002250
:1036F0001A600349012008709A7170470C0300207A
:103700000100002070B5334B1B880133984214D060
:10371000314B1B880133984214D0304B1B88013346
:10372000984229D02E4B1B880133984239D02D4B1B
:103730009B889BB2002B46D170BD2A480830FFF70A
:10374000CDFDF4E703F020F90200C4172300050FB4
:10375000210129431001801A9941234A0023FCF7D3
:103760005FFD0F30FF3004B21E480830FFF7B6FD92
:103770002000FFF747FFDAE7642000F08BFA03F040
:1037800003F9C117FA2292000023FCF769FD164ADB
:103790000023FCF745FD154B9C466044FFF74AFFAC
:1037A000C5E703F0F1F8C11764220023FCF758FDC8
:1037B0000D4A0023FCF734FD80B2C330FF3080B2E5
:1037C000FFF750FFB3E7074B988880B202F027FA63
:1037D000B2E7C046080700200407002002070020C7
:1037E000000700200C030020FFFFFF7FA0860100E0
:1037F00010B50378042B00D010BD43783E2B06D0C3
:10380000FF2B11D0052BF7D1FFF770FFF4E7C3783A
:10381000012BF1D103000933427981790902114367
:103820001800FFF757FFE7E7C27803791B0213433D
:10383000054A9342E0D1C3790530C07800021843AD
:10384000FFF760FFD8E7C046140C0000002902D142
:103850004260002070470120FCE7002802D0016090
:10386000002070470120FCE710B51F2203681A40B2
:1038700001239340054A5269134205D0034A53611C
:103880004368002B00D0984710BDC046000401409B
:10389000054B5A6B01210A435A63996B80225205EA
:1038A0000A439A637047C046001002407047FEE723
:1038B0007047704710B500F0DFF910BD10B5024831
:1038C000FFF7D2FF10BDC0468806002010B50248A1
:1038D000FFF7CAFF10BDC0460400002000B587B046
:1038E0000E4B996B802292020A439A63D96A012295
:1038F0001143D962DB6A1A400092009B0C230193AA
:103900000A3B029300230393049304330593A020FE
:1039100001A9C00500F022FA07B000BD0010024066
:1039200010B586B00E4AD16A01231943D162D26A1A
:103930001A400092009A20220192029303930133CD
:103940000493A024E40501A9200000F007FA002256
:103950002021200000F053FB002006B010BDC0461F
:103960000010024010B5A0202021C00500F04DFB42
:10397000002010BD10B586B00400204AD06A042390
:103980001843D062D26A13400093009B80239B01AE
:103990000193022303930493002920D0184B029330
:1039A00001A9184800F0DAF9E400174B1C1917496F
:1039B0002000FFF752FF002819D1154A00212000EE
:1039C000FFF744FF002815D100220F21073000F037
:1039D0006FF9072000F09CF9002006B010BD00230D
:1039E000029301A9074800F0B9F90020F5E7042087
:1039F0004042F2E704204042EFE7C0460010024098
:103A00000000111000080050040000200D00000606
:103A10002D3A000810B580218901034800F0E8FA2A
:103A20004342584110BDC0460008005010B5002068
:103A3000FEF75EFE10BD000010B50A4B0360E123E7
:103A40005B02436000238360C36003610C22426118
:103A50008361C3610362436201F024FE002800D049
:103A6000012010BD0044004010B5012810D882008C
:103A70000A4B9B189B680A4CC00103510419200093
:103A8000FFF72CFF2000FFF7D7FF002803D110BD60
:103A900002204042FBE704204042F8E704000020F7
:103AA0001007002070B588B0174B596B8022520167
:103AB0000A435A63D96A01221143D962D96A0A407A
:103AC0000192019ADA6A02252A43DA62DB6A2B4004
:103AD0000293029BC02303930495002405940326BC
:103AE00006960794A02003A9C00500F037F9082323
:103AF0000393049505940696079403A9034800F0E0
:103B00002DF908B070BDC0460010024000040050FE
:103B100000B583B013008022520100920A00010018
:103B2000044801F062F9002801D103B000BD06206D
:103B30004042FAE79007002010B500F0A5F810BD4C
:103B400010B50C4B036082235B004360002383604D
:103B5000C36003614361802292008261C36103629A
:103B6000436283620733C36201F02EF8002800D05D
:103B7000012010BD0030014010B50F4B0F4A1A60F4
:103B80000F4A1368591C1160002B01D0002010BD92
:103B9000094801F0F3FA002801D00020F7E7064CAD
:103BA0002000FFF77FFF2000FFF7CAFF0028EED0BC
:103BB00008204042EBE7C04690070020003001405B
:103BC00020030020104B1968802252000A431A601B
:103BD000DA680E490A40DA601A680D490A401A602C
:103BE0009A6801218A439A601A680A490A401A6051
:103BF000DA6809490A40DA6000221A61074B80221C
:103C000012059A607047C046001002400C40FF88C1
:103C1000F6FFF6FEFFFFFBFFFFFF02FF00ED00E0F7
:103C200010B50400094B1868FA218900FCF76CFAFA
:103C300000F078F8002801D0012010BD01300022EA
:103C40002100404200F034F80020F6E71000002088
:103C500010B5084A136840210B4313600020FFF79A
:103C6000DFFF041E02D00124200010BDFFF710FE6C
:103C7000FAE7C04600200240024A1368013313608D
:103C80007047C046E8070020014B18687047C046DF
:103C9000E807002070B50400FFF7F6FF0500631C7D
:103CA00000D00134FFF7F0FF401BA042FAD370BDF3
:103CB00070B5002811DB8408134DC034A40062598C
:103CC00003231840C000FC331E008640B243890124
:103CD0000B4083401343635170BDC0B20F220240BA
:103CE000083A920806329200084BD3185D68032404
:103CF0002040C000FF2214008440A54389010A40EF
:103D000082402A435A60E7E700E100E000ED00E06E
:103D10001F2318401E3B8340014A13607047C04672
:103D200000E100E001380A4B98420FD8094A506080
:103D30000948036A1B021B0AC02109060B430362E0
:103D40000023936007331360002070470120FCE7D5
:103D5000FFFFFF0010E000E000ED00E0F0B5C64618
:103D600000B5002338E0052600E00026AE4035000F
:103D70003D430234A400554EA551554C256842469A
:103D8000D4432E0026404A68D20302D5424615434A
:103D90002E004F4D2E606D682E0026404A6892031B
:103DA00002D5424615432E00494D6E60AD682E0087
:103DB00026404A68D20202D5424615432E00444DA1
:103DC000AE60ED682C404A68920202D542462A4312
:103DD00014003F4AD46001330A681400DC4072D0FA
:103DE00001249C4022409046F5D04D68022D01D020
:103DF000122D0ED1DD080835AD002F5807261E40C4
:103E0000B6000F22B24097430A69B24016003E4303
:103E10002E504D686E1E012E03D9112D01D0122D8A
:103E200012D185685F000326BE40B5432E00CD68E1
:103E3000BD40354385604568A5434A68160901249D
:103E400034409C402C43446007685E0003242500F6
:103E5000B540ED432F404A681440B4403C430460F1
:103E6000C46825408C68B4402C43C4604A68D200C2
:103E7000B1D5184D6C6B012634436C639C08A51CAE
:103E8000AD00124EAF5903261E40B5000F26AE40BE
:103E9000B743A026F605B04200D166E70E4EB04209
:103EA0000BD00E4EB0420AD00D4EB04209D00D4E8E
:103EB000B04200D157E7062658E7012656E702260A
:103EC00054E7032652E704BC9046F0BD00000140D1
:103ED000000401400010024000040050000800509F
:103EE000000C0050001C0050F0B5D6464F46464628
:103EF000C0B5002306E0052500E000259540A54259
:103F00004FD001330A00DA4061D001229A400C0000
:103F10001440A446F5D006685D000324A24627009D
:103F2000AF403D003E430660DF080837BF003C5805
:103F3000A14607261E40B6000F24A046B440260026
:103F40004C46B4433C508668ED432E40866046683C
:103F500096434660C2681540C5609E08B51CAD001A
:103F60001D4AAD5852461A409200474697402C00D1
:103F70003C40A025ED05A842BFD0184DA8420AD06C
:103F8000174DA84209D0174DA84208D0164DA84297
:103F9000B1D00625B2E70125B0E70225AEE703253B
:103FA000ACE70D4DB21C92005459BC4354510F4C18
:103FB00025686246D24315402560656815406560F6
:103FC000A5681540A560E5682A40E26099E71CBC39
:103FD00090469946A246F0BD000001400004005002
:103FE00000080050000C0050001C0050000401406C
:103FF00003690B4201D1002070470120FCE7002A31
:1040000001D1816270478161FCE743695940416198
:104010007047000010B5264BD9680C230B40082BC5
:1040200042D00C2B11D0042B09D0214B5A68520BD3
:1040300007231340013380200002984010BD1C4B21
:104040001B68DB0632D51B48F8E78A0C0F231340A8
:10405000194AD05C890D032211400131144BDB68F1
:10406000DB030DD4124B1B68DB0613D54201121A79
:1040700093019B1ADB001B181802FCF745F8DDE7DB
:104080004201121A93019B1ADB001B185802FCF71D
:104090003BF8D3E74201121A93019B1ADB001B186D
:1040A0009802FCF731F8C9E70448C7E70448C5E7B8
:1040B0000010024000093D00187E000800127A003E
:1040C0000024F400F0B583B0041E00D197E2CA4B7F
:1040D000DA680C251540DA688026760216400368F7
:1040E000DB0736D5082D2CD00C2D28D06368802214
:1040F000520293424DD0A022D202934250D0BE4BE6
:104100001A68BE490A401A601A68802149020A40AA
:104110000192019A1A68BA490A401A606368002B32
:104120004AD0FFF7B1FD0700B34B1B689B0310D4C7
:10413000FFF7AAFDC01B6428F6D9032060E2002E19
:10414000D4D0AD4B1B689B0303D56368002B00D113
:1041500058E223689B0764D5E368042D3CD00C2DFE
:1041600038D0002B00D1AEE0A3490A680920824371
:1041700013430B60FFF788FD06009F4B1B685B072E
:1041800000D597E0FFF780FD801B0228F5D90320BA
:1041900036E2994A116880235B020B431360BDE746
:1041A000954B19688022D2020A431A60196880224E
:1041B00052020A431A60B1E7FFF766FD07008E4B13
:1041C0001B689B03C5D5FFF75FFDC01B6428F6D9AC
:1041D000032015E2002EC4D1874A1268520702D587
:1041E000002B00D110E2844E726886490A40216992
:1041F00009020A437260326809218A43134333601B
:10420000FFF708FFF26812090F2313407E4AD35CC0
:10421000D8407E4B18600020FFF702FD002800D038
:10422000EEE12368DB062CD5002D5FD1724B1B68B5
:104230009B0503D5E369002B00D1E7E16E4A536883
:1042400073490B40616A0B43536053681B021B0A9E
:10425000216A09060B435360636A590B01318023BD
:104260001B028B40D16809090F220A4066498A5C0B
:10427000D340664A13600020FFF7D2FC002800D02C
:10428000BEE123681B077DD56369002B67D05A4ABE
:10429000136D01210B431365FFF7F6FC0600564B27
:1042A0001B6D9B076ED4FFF7EFFC801B0228F6D92D
:1042B0000320A5E150494B68524A1340226912027B
:1042C00013434B60ADE74C4A136801218B431360E5
:1042D000FFF7DAFC0600484B1B685B07A1D5FFF728
:1042E000D3FC801B0228F6D9032089E1E369002B67
:1042F00022D0414A116880235B000B431360FFF713
:10430000C3FC06003C4B1B689B0506D4FFF7BCFCB6
:10431000801B0228F6D9032072E1374A53683C49D2
:104320000B40616A0B43536053681B021B0A216AEE
:1043300009060B435360A4E72F4A136835490B4025
:104340001360FFF7A1FC06002B4B1B689B0598D55B
:10435000FFF79AFC801B0228F6D9032050E1264A79
:10436000136D01218B431365FFF78EFC0600224B72
:104370001B6D9B0706D5FFF787FC801B0228F6D92B
:1043800003203DE123685B0700D48CE01A4B9B6B54
:10439000DB001BD4184A916B80235B050B439363AE
:1043A00001261D4B1B68DB0512D5A3688022520035
:1043B000934235D0002B4BD10F4B1A6D15490A4053
:1043C0001A651A6D15490A401A652FE00026E8E7BC
:1043D000114A116880235B000B431360FFF754FC04
:1043E00007000D4B1B68DB05DFD4FFF74DFCC01B3E
:1043F0006428F6D9032003E100100240FFFFFEFF0E
:10440000FFFFFBFFFFE0FFFF247E000810000020FD
:10441000FF1FFFFFFFFEFFFF00700040FFFBFFFFDD
:104420007E4A116D80235B000B431365A368002B4C
:1044300028D0FFF729FC0700784B1B6D9B0530D473
:10444000FFF722FCC01B764B9842F5D90320D7E03A
:10445000A022D200934209D0704B1A6D71490A40D4
:104460001A651A6D70490A401A65DFE76B4B196DC2
:10447000013AFF3A0A431A65196D802252000A4335
:104480001A65D3E7FFF700FC0700644B1B6D9B0523
:1044900007D5FFF7F9FBC01B614B9842F5D9032004
:1044A000AEE0012E21D023689B063CD5A369002BEA
:1044B00021D05A4B99680120014399605A6B0243FD
:1044C0005A635A4A116A80239B010B431362FFF718
:1044D000DBFB0600514B9B689B0724D4FFF7D4FB02
:1044E000801B0228F6D903208AE04C4A936B50497E
:1044F0000B409363D7E7494A936801218B4393604C
:104500004A4A136A4B490B401362FFF7BDFB060092
:10451000424B9B689B0706D5FFF7B6FB801B022822
:10452000F6D903206CE0A36A002B00D170E00C2DBB
:1045300049D0022B12D0394A13683F490B4013600F
:10454000FFF7A2FB0400354B1B689B0139D5FFF731
:104550009BFB001B0228F6D9032051E02F4A136869
:1045600035490B401360FFF78FFB05002B4B1B6891
:104570009B0106D5FFF788FB401B0228F6D90320D4
:104580003EE02649CB682D4A1340E26A206B024385
:10459000606B02431343CB600A6880235B041343C0
:1045A0000B60FFF771FB04001C4B1B689B0106D4DA
:1045B000FFF76AFB001B0228F6D9032020E0002049
:1045C0001EE000201CE0012B24D0144BDA6880236D
:1045D0005B021340E16A8B4201D0012010E0F0231E
:1045E0009B031340216B8B4201D0012008E0C023C4
:1045F0001B041A40636B9A420ED0012000E0012098
:1046000003B0F0BD0120FBE70120F9E70120F7E747
:104610000020F5E70120F3E70020F1E70010024059
:1046200088130000FFFEFFFFFFFBFFFF00000140BB
:10463000FFFFFFEFFFDFFFFFFFFFFFFEFFFF02FFB8
:1046400070B504000D00002800D1BAE05F4B1A6875
:10465000012313408B420BD25C490B680122934328
:104660002B430B600B681A40AA4201D00120A9E03D
:1046700023689B0706D5564AD368F0218B43A1686F
:104680000B43D3602368DB0764D56368022B09D032
:10469000032B29D0012B2DD04D4A1268920506D448
:1046A00001208FE04A4A1268920300D48BE0484907
:1046B000CA68032082431343CB60FFF7E5FA060084
:1046C0006368022B1CD0032B28D0012B34D0404B25
:1046D000DB680C221A423DD0FFF7D6FA801B3D4B17
:1046E0009842F4D903206DE0394A12689201DED471
:1046F000012067E0364A12685207D8D4012061E0F1
:10470000334BDA680C231340082B23D0FFF7BCFA95
:10471000801B304B9842F3D9032053E02C4BDA68CE
:104720000C2313400C2B15D0FFF7AEFA801B294B3E
:104730009842F3D9032045E0254BDA680C23134057
:10474000042B07D0FFF7A0FA801B224B9842F3D925
:10475000032037E01D4B1A6801231340AB420BD9ED
:104760001A490B68012293432B430B600B681A40D4
:10477000AA4201D0012025E023685B0706D5144A30
:10478000D36815490B40E1680B43D36023681B07CE
:1047900007D50F49CB68114A13402269D200134351
:1047A000CB60FFF737FC0A4BDA6812090F2313407E
:1047B0000B4AD35CD8400B4B18600020FFF730FA4F
:1047C00000E0012070BD0120FCE7C046002002404F
:1047D0000010024088130000FFF8FFFFFFC7FFFF33
:1047E000247E000810000020014B18687047C04666
:1047F0001000002010B5FFF7F7FF044BDA68120A2B
:1048000007231340024AD35CD84010BD0010024079
:10481000347E000810B5FFF7E7FF044BDA68D20AD0
:1048200007231340024AD35CD84010BD0010024059
:10483000347E000870B5040082231B0102681A420E
:104840005AD0704B9B6BDB0000D593E06D4A916BA7
:1048500080235B050B43936301256B4B1B68DB05D2
:1048600000D489E0674B1A68C0239B031A40616833
:104870000B40934200D194E0C0239B020A001A40EF
:104880009A4200D195E05F4B1B6DC022920213400B
:104890001FD01140994202D02268920608D4C0224B
:1048A0009202A1680A409A4213D023681B0510D5D2
:1048B000544B186D554A02401E6D80210903314347
:1048C0001965196D524E314019651A65C30500D539
:1048D00076E06368C022920219001140914200D133
:1048E0007EE048490B6DC02292026068024013438B
:1048F0000B65012D00D17DE02368DB0706D5414A19
:10490000D36C03218B43E1680B43D36423689B077B
:1049100006D53C4AD36C0C218B4321690B43D364ED
:1049200023685B0706D5374AD36C3A490B40616967
:104930000B43D36423681B0706D5324AD36C364930
:104940000B40A1690B43D36423685B0606D52D4A4F
:10495000D36C32490B40216A0B43D36423681B0696
:104960004ED5284AD36C2E490B40E1690B43D364E2
:10497000002070BD002570E7234A116880235B008A
:104980000B431360FFF780F906001F4B1B68DB0524
:1049900000D567E7FFF778F9801B6428F5D9032075
:1049A000E7E7C0239B03A0680340934200D063E77E
:1049B00069E7144B1B689B0300D464E70120D8E728
:1049C000FFF762F906000F4B1B6D9B0500D580E7D2
:1049D000FFF75AF9801B134B9842F4D90320C8E71C
:1049E00008490A6810480240C0208003034013436E
:1049F0000B6076E70A008B6B0C490B4093637BE7F7
:104A00000020B6E70010024000700040FFFFFCFFEE
:104A1000FFFFF7FFFFF3FFFFFFCFFFFFFFFFFFFBEE
:104A2000FFFFF3FF88130000FFFFCFFFFFFFFFEF43
:104A3000F8B506000C0017001D0033689B68234082
:104A40001B1B5A425341BB423BD06B1CF5D0FFF7B6
:104A50001BF9069BC01AA84201D2002DEDD1326885
:104A60005368E0218B43536082235B0072689A4253
:104A70000CD080239B01B26A9A4216D051230122A6
:104A8000F254013B0022F25403201BE0B368802261
:104A90001202934203D08022D2009342E9D13268BD
:104AA000136840218B431360E3E7326813680649BB
:104AB0000B4013603268116880239B010B43136025
:104AC000DCE70020F8BDC046FFDFFFFF10B582B075
:104AD0000400822040006368834206D05120205C9D
:104AE000052811D0002002B010BD00920B0000225A
:104AF00080212000FFF79CFF0028F4D0636D202266
:104B0000134363650320EEE700920B0000220121AE
:104B10002000FFF78DFF0028E5D0636D20221343AE
:104B200063650320DFE730B583B0040082204000D6
:104B30006368834218D0822040006368834231D189
:104B40008023DB00A06898421DD000920B00002259
:104B500080212000FFF76CFF00282CD0636D2022FD
:104B600013436365032026E0A3688020000283428C
:104B700003D08020C0008342DDD120680368402537
:104B8000AB430360D7E700920B0000220121200015
:104B9000FFF74EFF00280ED0636D2022134363659C
:104BA000032008E000920B00002201212000FFF703
:104BB0003FFF002801D103B030BD636D20221343B5
:104BC00063650320F7E7704710B5041E3BD0002350
:104BD00083625133C35C002B2FD051220223A35494
:104BE00021680B68402083430B606368A1680B4316
:104BF000E1680B4321690B4361690B438021890004
:104C0000A06901400B43E1690B43216A0B43216812
:104C1000A06A03430B60618B04230B402168606A28
:104C200003434B602168CB6908480340CB610023F4
:104C300063650133A354002010BD50330022C254D9
:104C4000FFF7C1FFC9E70120F6E7C046FFF7FFFF06
:104C5000F0B585B00400019116001F005023C35C1D
:104C6000012B00D1BFE050230122C254FFF70CF802
:104C700005005123E35C012B08D0022051230122BF
:104C8000E254013B0022E25405B0F0BD0199002935
:104C900000D19AE0002E00D199E050330322E25473
:104CA000002363652163A686E686A363A387E38763
:104CB0006364236480231B02A2689A421DD0236888
:104CC0001A68520603D41A6840210A431A608023E6
:104CD0001B01E2689A4217D06368002B01D0012EB5
:104CE00048D1236B1B7822681373236B0133236332
:104CF000E38E013B9BB2E3863CE02268116880238F
:104D0000DB010B431360DAE76368002B01D0012E4F
:104D100014D12368226B1288DA60236B0233236379
:104D2000E38E013B9BB2E38608E0FEF7ADFF401B3C
:104D3000B84201D37B1C4CD1002F4CD0E38E9BB2E8
:104D4000002B2AD023689A689207EED5226B12882E
:104D5000DA60236B02332363E38E013B9BB2E3866D
:104D6000ECE7FEF791FF401BB84201D37B1C34D126
:104D7000002F34D0E38E9BB2002B0ED023689A68AC
:104D80009207EED5226B12781A73236B01332363DB
:104D9000E38E013B9BB2E386ECE72A00390020005A
:104DA000FFF794FE002801D020236365A368002B41
:104DB00006D103932368DA6803929B680393039BED
:104DC000636D002B0DD1002058E7012056E701202C
:104DD00054E7032052E7032050E703204EE7032067
:104DE0004CE701204AE702204EE7F0B585B0040009
:104DF0000E0001921D005023C35C012B00D108E17D
:104E000050230122C254FEF73FFF07005123E35C09
:104E1000DBB26268012B14D0822149008A4208D09B
:104E2000022051230122E254013B0022E25405B04A
:104E3000F0BDA268002A00D0DDE0042B01D00220E2
:104E4000EFE7002E00D1D8E0019B002B00D1D6E087
:104E5000002D00D1D5E05123E35C042B02D0512377
:104E60000522E25400236365019AA263E587A587C2
:104E70002663E586A5862364636423681A68520660
:104E800003D41A6840210A431A6080231B01E26898
:104E90009A4211D06368002B01D0012D0AD1236BF7
:104EA0001B7822681373236B01332363E38E013B6A
:104EB0009BB2E386012569E06368002B01D0012DD8
:104EC0000AD12368226B1288DA60236B02332363D2
:104ED000E38E013B9BB2E38601251BE023689A68C1
:104EE000D2070ED5E28F92B2002A0AD0DB68A26BFD
:104EF0001380A36B0233A363E38F013B9BB2E38771
:104F00000125FEF7C1FEC01B0A9B984202D3013364
:104F100000D078E0E38E9BB2002B03D1E38F9BB2ED
:104F2000002B51D023689A689207D7D5E28E92B2AF
:104F3000002AD3D0012DD1D1226B1288DA60236BE5
:104F400002332363E38E013B9BB2E3860025C5E772
:104F500023689A68D2070ED5E28F92B2002A0AD04F
:104F6000DB68A26B1370A36B0133A363E38F013B78
:104F70009BB2E3870125FEF787FEC01B0A9B984280
:104F800001D3013341D10A9B002B40D0E38E9BB269
:104F9000002B03D1E38F9BB2002B15D023689A68B6
:104FA0009207D5D5E28E92B2002AD1D0012DCFD171
:104FB000226B12781A73236B01332363E38E013B58
:104FC0009BB2E3860025C3E73A000A992000FFF769
:104FD0007DFD002803D020236365012021E7A3681D
:104FE000002B00D01DE703932368DA6803929B68C7
:104FF0000393039B15E7022013E7012011E701202B
:105000000FE701200DE703200BE7032009E703204A
:1050100007E702200BE70000F0B585B004000D00A3
:1050200016001F0082235B0042689A4217D050236B
:10503000E35C012B00D19CE050230122E254FEF7F7
:1050400023FE03905123E35C012B14D00220512353
:105050000122E254013B0022E25405B0F0BD836816
:10506000002BE4D151330422C254009733000A00CC
:10507000FFF7BBFEF1E7002D6DD0002E6DD0503351
:105080000422E25400236365A563A687E6872363B1
:10509000A386E3862364636480231B02A2689A428A
:1050A0000BD023681A68520603D41A6840210A43B9
:1050B0001A60E368002B10D02CE0226813682E4998
:1050C0000B401360EDE7FEF7DFFD039BC01AB8420B
:1050D00001D37B1C43D1002F43D0E38F9BB2002B25
:1050E0002BD023689A68D207EDD51B7BA26B137077
:1050F000A36B0133A363E38F013B9BB2E387ECE730
:10510000FEF7C2FD039BC01AB84201D37B1C2AD113
:10511000002F2AD0E38F9BB2002B0ED023689A6811
:10512000D207EDD5DB68A26B1380A36B0233A363B8
:10513000E38F013B9BB2E387ECE7039A3900200041
:10514000FFF7F1FC002801D020236365636D002B7D
:105150000DD100207BE7012079E7012077E70320CC
:1051600075E7032073E7032071E703206FE7012051
:105170006DE7022071E7C046FFBFFFFF5123C05C0F
:10518000C0B2704770470000D0B504000168836862
:105190000269134342691343C26913430A68C04852
:1051A000024013430B6022685368BE490B40E1681C
:1051B0000B435360A1692268BB4B9A4201D0236A1A
:1051C00019439368B94803400B4393602268B84B76
:1051D0009A4216D0B74B9A4227D0B34B9A4239D055
:1051E0001023B1498A4257D080221202E1699142CC
:1051F00000D18CE0082B00D949E19B00AE4AD3587E
:105200009F46AE4BD96C03230B40012B09D0002BDA
:1052100005D0022B3AD0032B05D01023E1E7012360
:10522000DFE70423DDE70823DBE7A44BD96C0C237D
:105230000B40042B0AD005D9082B29D00C2B07D101
:105240000823CEE7002B03D10023CAE70423C8E7D5
:105250001023C6E7994BDB6CC02109010B4080216C
:10526000C9008B420ED009D9802109018B4211D08F
:10527000C02109018B4207D10823B2E7002B03D1DB
:105280000023AEE70423ACE71023AAE70223A8E734
:105290000223A6E70223A4E7022B2DD007D9042B73
:1052A00030D0082B00D0F5E08020000207E0002B72
:1052B00000D0EFE0FFF79EFA002800D1ECE0626832
:1052C00053009B18834200D9E8E01303834200D2C5
:1052D00006E1070E060250080021801979410023DB
:1052E000FAF79EFF764BC218764B9A4200D9F9E046
:1052F0002368D860002085E0704B1B68DB0604D46F
:105300007148DCE7FEF786FED6E77048D7E7082B42
:1053100062D89B006E4AD3589F46FFF76BFA400055
:1053200063685B08C0186168FAF7EEFE03041B0CA3
:10533000002068491A00103A8A4200D9D4E00F22AE
:10534000190091435B08083A13400B432268D3606D
:1053500058E0FFF75FFA400063685B08C0186168B7
:10536000FAF7D2FE03041B0C0020E2E7534B1B6844
:10537000DB060BD563685808574B9C466044616850
:10538000FAF7C2FE03041B0C0020D2E7636858083A
:10539000524B9C4660446168FAF7B6FE03041B0C4E
:1053A0000020C6E7FEF736FE400063685B08C018C1
:1053B0006168FAF7A9FE03041B0C0020B9E76368D3
:1053C000580880235B029C4660446168FAF79CFEA3
:1053D00003041B0C0020ACE701200023A9E7FFF722
:1053E00009FA63685B08C0186168FAF78DFE030468
:1053F0001B0C002037491A00103A8A4200D975E088
:105400002268D360002323666366D0BDFFF702FAEB
:1054100063685B08C0186168FAF776FE03041B0C2A
:105420000020E7E7254B1B68DB060BD563685808AF
:10543000264B9C4660446168FAF766FE03041B0C29
:105440000020D7E7636858081F4B9C46604461689A
:10545000FAF75AFE03041B0C0020CBE7FEF7DAFD37
:1054600063685B08C0186168FAF74EFE03041B0C02
:105470000020BFE76368580880231B029C466044F5
:105480006168FAF741FE03041B0C0020B2E701201B
:105490000023AFE70120B5E70020B3E70120B1E723
:1054A000F369FFEFFFCFFFFF00480040FFF4FFFF6D
:1054B00000380140004400403C7E000800100240DB
:1054C00000FDFFFFFFFC0F000024F40000093D0079
:1054D000607E0008EFFF000000127A000048E8013B
:1054E00001208FE701208DE701208BE7012089E76C
:1054F000436ADB0706D5026853682C490B40816A72
:105500000B435360436A9B0706D5026853682849DA
:105510000B40C16A0B435360436A5B0706D50268C0
:10552000536824490B40016B0B435360436A1B07CC
:1055300006D50268536820490B40416B0B4353600A
:10554000436ADB0606D5026893681C490B40816BF1
:105550000B439360436A9B0606D50268936818491B
:105560000B40C16B0B439360436A5B060BD502682B
:10557000536814490B40016C0B43536080235B0359
:10558000026C9A420AD0436A1B0606D50268536829
:105590000D490B40816C0B435360704702685368A0
:1055A0000A490B40416C0B435360ECE7FFFFFDFFE2
:1055B000FFFFFEFFFFFFFBFFFF7FFFFFFFEFFFFF90
:1055C000FFDFFFFFFFFFEFFFFFFFF7FFFFFF9FFF83
:1055D000F0B5C64600B506000C0017009846069DBB
:1055E0003368DB6923401B1B5A425341BB421CD129
:1055F0006B1CF5D0FEF748FB4346C01AA84201D801
:10560000002DEDD1326813680A490B4013603268EF
:105610009368A331FF318B43936020237367B36793
:1056200050330022F254032000E0002004BC9046D6
:10563000F0BDC0465FFEFFFF30B583B0040000231D
:10564000C367FEF721FB050023681B681B070CD40A
:1056500023681B685B0715D420236367A367503357
:105660000022E254002003B030BD80210C4B009397
:105670000300002289032000FFF7AAFF0028E7D0DB
:105680000320F0E78021064B00932B000022C90382
:105690002000FFF79DFF0028DED00320E3E7C0468F
:1056A000FFFFFF0110B5041E2ED0436F002B21D049
:1056B000242363672268136801218B431360200051
:1056C000FFF762FD012814D0636A002B18D122680D
:1056D00053680E490B405360226893682A218B431C
:1056E00093602268136829390B4313602000FFF789
:1056F000A3FF10BD70330022C254FFF743FDD7E76C
:105700002000FFF7F5FEE2E70120F2E7FFB7FFFF19
:1057100070B58AB01D0003AC20706170A27001AE3C
:1057200007220021300000F0D0FD04A800230593DB
:105730003F3303804B3343808460873BC360066103
:1057400004334361002100F019FC002815DB01AB94
:10575000187800280FD11A00019B1B021B0C2B800C
:10576000D17813791B020B430E990B8053681B02EF
:105770001B0C0F9A13800AB070BDFF20FBE7F0B539
:105780008DB00F001600019305AC207003AD072209
:105790000021280000F099FD06A8002307933F335D
:1057A00003804B3343808460893BC36005610633CB
:1057B0004361002100F0E2FB002814DB03AB187802
:1057C00000280ED11A0003990B021B0C3B80D178E4
:1057D00013791B020B43338053681B021B0C019A85
:1057E00013800DB0F0BDFF20FBE7F0B595B000933E
:1057F0001AAB1F781BAB1E781DAB1C786D46E98079
:1058000001AB1A8033190E33282B49D803AD287009
:105810000222694606310D20684400F04DFD022247
:1058200001A90F20684400F047FD009B6B71AF7128
:10583000EE7132001C9905A800F03EFD33000833DC
:10584000DBB2EC540936F6B2A81922001E9900F01A
:1058500033FDA419E4B2281902221FA900F02CFD7F
:10586000A01CC0B22818022220A900F025FD043493
:10587000E4B20EA800230F933F33038044334380E8
:105880008560C4604C3B6B4403610123436100218C
:1058900000F074FB002806DB37236B44187800E027
:1058A000422015B0F0BDFF20FBE7F0B5CE464746DD
:1058B00080B591B00192994618AB1B78984619AB08
:1058C0001F781A9D1BAB1E7803AC207061701022EC
:1058D000019902AB981D00F0EFFC4B46A3744346C0
:1058E000E3742775192302AA944663441D702A0A9B
:1058F0005A702A0C9A702D0EDD7066760AA8002365
:105900000B933F3303804733438084606C3BC36019
:1059100063460333036101234361002100F02EFB42
:10592000002806DB02ABD87811B00CBC9046994633
:10593000F0BDFF20F8E710B588B002AC0C220021C2
:1059400003A800F0C2FC3F2323800223FF336380BF
:105950006B4607332361012363610021200000F0BF
:105960000DFB002803DB6B46D87908B010BDFF2083
:10597000FBE770B58CB016001D006B46187001284F
:105980002ED0102422006B46581C00F095FC631C9E
:105990006A46D654A31CD554033405AD0322002116
:1059A000280000F092FC06A8002307933F330380F1
:1059B000C33343806B468360C46005610323436146
:1059C000002100F0DBFA00280CDB05AB187800287A
:1059D00004D1059B1B021B0C109A13800CB070BDE8
:1059E0000224CFE7FF20F9E7F0B5DE4657464E46E2
:1059F0004546E0B591B000929B461AAB1B789A469B
:105A00001BAB1B7899461CAB1B7898461DAB1F78C7
:105A10001EAB1E786B46D88002AB188099700129A6
:105A200040D0102402AD220000990B20684400F001
:105A300043FCE31C5A46EA54231D5246EA54631DB4
:105A40004A46EA54A31D4246EA54E31DEF5401338B
:105A5000EE54093409AE03220021300000F035FC79
:105A60000AA800230B933F330380C533438085602E
:105A7000C4600661023BFF3B4361002100F07EFAF7
:105A8000002811DB09AB1878002804D1099B1B0200
:105A90001B0C1F9A138011B03CBC90469946A2463D
:105AA000AB46F0BD0224BDE7FF20F4E7F0B5DE46CB
:105AB00057464E464546E0B5ABB034AC2478A346D5
:105AC00035AC247837AD2D78AA4638AD2D78A94667
:105AD00039AD2D78A8463AAD2F783BAD2D7800959D
